:020000040800F2
:10000000A056002061020008C53B000831360008F8
:10001000F13A0008310F0008C55400080000000044
:10002000000000000000000000000000A101000826
:10003000C111000800000000FD0100087D4E00080D
:100040007B0200087B0200087B0200087B0200089C
:100050007B0200087B0200087B0200087B0200088C
:100060007B0200087B0200087B020008ED100008FC
:10007000F91000087B0200087B0200087B020008E0
:10008000051100087B0200087B0200087B020008C3
:10009000350F00087B0200087B0200087B02000885
:1000A000394F0008454F00087B0200087B0200081A
:1000B0007B0200087B0200087B0200087B0200082C
:1000C0007B0200087B0200087B0200087B0200081C
:1000D0007B0200087B020008695400088554000870
:1000E0007B0200087B0200087B0200087B020008FC
:1000F0007B0200087B0200087B0200087B020008EC
:100100007B0200087B0200087B0200087B020008DB
:100110007B020008855000087B0200087B02000873
:100120007B020008111100087B0200087B02000816
:100130007B0200087B0200087B0200087B020008AB
:10014000410F00087B0200087B0200087B020008C8
:100150007B0200087B0200087B020008A154000813
:100160007B0200087B0200087B0200087B0200087B
:100170007B0200087B0200087B02000800000000F0
:100180007B0200087B020008DFF810D000F0C6FBFD
:1001900000480047B15E0008AFF30080A056002081
:1001A0002C4B19680868B0E8F04F80F30988BFF35A
:1001B0006F8F4FF0000080F311887047000000003F
:1001C00008480068006880F308884FF0000080F35A
:1001D000148862B661B6BFF34F8FBFF36F8F00DF35
:1001E00000BF00BF08ED00E0DFF80C00016841F43B
:1001F00070010160704700BF88ED00E0EFF30980F7
:10020000BFF36F8F134B1A681EF0100F08BF20ED5D
:10021000108A20E9F04F106009B44FF0500080F3CD
:100220001188BFF34F8FBFF36F8F06F03BFE4FF087
:10023000000080F3118809BC19680868B0E8F04F25
:100240001EF0100F08BFB0EC108A80F30988BFF3CE
:100250006F8F7047F4000020EFF3058070470000B7
:100260000648804706480047FEE7FEE7FEE7FEE750
:10027000FEE7FEE7FEE7FEE7FEE7FEE7294F0008A0
:10028000890100089FED1A1AF5EE000A40EE010AF6
:10029000BDEEE00AF5EEC00A10EE100AF1EE10FA1B
:1002A00038BF401E00EE100A1349F7EE001AB8EEF0
:1002B000C00A30EEC00ADFED0F0A20EE200AFCEE85
:1002C000C00A10EE900AC0F3080000EE900A01EB9D
:1002D0008000F8EE600A90ED011A70EE600A90ED71
:1002E000000A71EEE01A21EE800A00EE810A7047E2
:1002F00083F9223E00000044C8810008B5EEC00A20
:10030000F1EE10FA07D2DFED1E0AB4EEE00AF1EECC
:1003100010FAA8BF7047DFED1B0AB5EEC00A60EE09
:10032000200ABDEEE01A11EE100AF1EE10FA38BF05
:10033000401E00EE100A1549F7EE001AB8EEC00A8A
:1003400030EEC00ADFED100A60EE200ABCEEE00AD3
:1003500010EE100AC0F3080000EE100A01EB800056
:10036000B8EE400A90ED011A70EEC00A90ED000A56
:1003700071EEE01A21EE800A00EE810A704700005B
:10038000CD024CB483F9223E00000044C88100082D
:100390002DE9F05F0546002092469B4688460646BA
:1003A000814640241BE0284641464746224600F04D
:1003B0003CF953465A46C01A914110D3114618468B
:1003C000224600F023F92D1A67EB01084F4622461A
:1003D0000120002100F01AF917EB00094E41201E00
:1003E000A4F10104DFDC484631462A464346BDE815
:1003F000F09F40EA01039B0703D009E008C9121FE0
:1004000008C0042AFAD203E011F8013B00F8013BCE
:10041000521EF9D27047D2B201E000F8012B491EFA
:10042000FBD270470022F6E710B513460A46044691
:100430001946FFF7F0FF204610BD2DE9FE4F80461C
:1004400081EA0300C00F0C46009021F0004123F028
:100450000045B8EB0200A94105D24046214690462E
:100460001C460B46024623F00040104347D0270DA0
:10047000C7F30A00C3F30A510290401A01904028C2
:100480006BDAC3F3130040F4801B0098924620B14E
:100490000023D2EB030A63EB0B0B01985946C0F122
:1004A0004002504600F0B2F806460D465046594606
:1004B000019A00F0CAF810EB08006141002487EAB5
:1004C000115284EAE7731A4340D0009A62B3019A4A
:1004D000012A4FEA075215DC001B61EB02014FF0C5
:1004E000004202EA0752CDE90042001C41F58011AA
:1004F00032462B4600F0CAF803B0BDE8F08F404604
:100500002146F9E7001B61EB0201001C41F5801355
:1005100000185B412018A2F5001747EB030140EAE1
:10052000D570B6196D4111E06D084FEA360645EAFF
:10053000C0754FEA0752001B61EB0201001C41F538
:10054000801149084FEA30000019514132462B46CC
:1005500003B0BDE8F04F00F08AB8009801224000D7
:100560000023D0EB020263EBE073009821464FEAD0
:10057000E074B8EB000061EB0401E9E783F00043AD
:100580005BE781F0004158E700F0004230F00040A6
:100590000AD0C10D01F56071C0F3160042EA0151A5
:1005A000C208400711437047002001467047000011
:1005B00030B5041E71F1000404DB4FF000444042EA
:1005C00064EB0101141E73F1000405DB1C464FF0BF
:1005D0000043524263EB0403994208BF904230BD8E
:1005E00030B50B46014600202022012409E021FA03
:1005F00002F59D4205D303FA02F5491B04FA02F500
:100600002844151EA2F10102F1DC30BD202A04DBD2
:10061000203A00FA02F1002070479140C2F1200315
:1006200020FA03F3194390407047202A04DB203A54
:1006300021FA02F00021704721FA02F3D040C2F102
:1006400020029140084319467047202A06DBCB1749
:10065000203A41FA02F043EAE07306E041FA02F37D
:10066000D040C2F12002914008431946704710B5AE
:10067000141E73F1000408DA401C41F100019218C5
:100680005B411A4301D120F0010010BD2DE9F04D6E
:1006900092469B4611B1B1FA81F202E0B0FA80F2C3
:1006A00020329046FFF7B2FF04460F4640EA0A00A8
:1006B00041EA0B0153465A46084313D0114653EA08
:1006C000010019D0C8F140025046FFF7AEFF0546C1
:1006D0000E46504659464246FFF798FF084305D05C
:1006E000012004E020463946BDE8F08D0020054396
:1006F00046EAE0762C4337430A986305E40AA0EB08
:1007000008000022FD0A44EA47540A3002D50020BE
:100710000146E9E7010510196941DDE908450019BD
:100720006941BDE8F04DA2E72DE9FE4F81EA0304DF
:1007300004F0004421F0004100944FF0000B23F03E
:10074000004350EA01045ED052EA03045BD0C3F3D5
:100750000A54C1F30A552C44A4F2F3340194A0FBCB
:100760000254C1F3130141F48011C3F3130343F4A2
:10077000801301FB024400FB034E840A970A44EAFB
:10078000815447EA8357A4FB076802958D0A05FB4D
:1007900007854FEA932C04FB0C542705029D4FEA72
:1007A000065847EA1637B5EB08056EEB070C870EBF
:1007B000920E47EA811742EA8312A7FB0201B6EBC9
:1007C0000B0164EB00042B0D43EA0C335E1844EB81
:1007D0001C50DA465146E7FB0201C5F313044FEA09
:1007E0000B3343EA14534FEA0432019C43EA0603F5
:1007F000A4F10C040294009CCDE900B4FFF746FF7D
:1008000003B0BDE8F08F00200146F9E72DE9F04D77
:1008100081EA030404F0004B21F0004514464FF038
:10082000000A23F0004150EA050220D054EA0102F8
:100830001DD0C5F30A570246C5F31303C1F31300D5
:10084000C1F30A5640F4801543F48013A7EB060861
:10085000101BD64608F2FD3873EB050002D308F1F1
:10086000010801E092185B41B8F1000F03DA0020A3
:100870000146BDE8F08D00204FF480110646844605
:100880000EE0171B73EB050705D3121B63EB050383
:1008900006434CEA010C49084FEA300092185B41CC
:1008A00050EA0107EDD152EA030012D082EA0400B7
:1008B00083EA0501084305D0101BAB4106D2012293
:1008C000002306E000224FF0004302E06FF0010237
:1008D00053101AEB06004CEB085110EB0A0041EBE9
:1008E0000B01BDE8F04DFFF7C2BEC1F30A52C1F3E0
:1008F000130140F2FF3341F480119A4202DA0020E2
:100900000146704740F233439A42A2F2334202DC7E
:100910005242FFF78ABEFFF779BE0000064C074D32
:1009200006E0E06840F0010394E8070098471034BF
:10093000AC42F6D3FFF72CFCE4890008048A0008D7
:1009400070B58C1810F8015B15F0070301D110F891
:10095000013B2A1106D110F8012B03E010F8016BBE
:1009600001F8016B5B1EF9D12B0705D40023521E41
:100970000DD401F8013BFAE710F8013BCB1A921CA9
:1009800003E013F8015B01F8015B521EF9D5A142A7
:10099000D8D3002070BD000070B5D2482DED048B77
:1009A0009FEDD18AF0EE482ADFEDD08AB0EE682ABA
:1009B0009FEDCF9AB7EE001AF6EE080AF0EE491A4C
:1009C000B2EE020A03F01CFBC648F0EE482A3430AF
:1009D000B0EE682AF0EE491AB7EE001AF6EE080AF1
:1009E000B2EE020A03F00CFBBE48F0EE482A683073
:1009F000B0EE682AF0EE491AB7EE001AF6EE080AD1
:100A0000B2EE020A03F0FCFAB648F0EE482A9C3037
:100A1000B0EE682AF0EE491AB7EE001AF6EE080AB0
:100A2000B2EE020A03F0ECFAAE48F0EE482AD030FB
:100A3000B0EE682AF0EE491AB7EE001AF6EE080A90
:100A4000B2EE020A03F0DCFAAA48F0EE482AB0EE51
:100A5000682AF0EE491AB7EE001AF6EE080AB2EE6E
:100A6000020A03F0CDFAA348F0EE482A3430B0EE83
:100A7000682AF0EE491AB7EE001AF6EE080AB2EE4E
:100A8000020A03F0BDFA9B48F0EE482A6830B0EE47
:100A9000682AF0EE491AB7EE001AF6EE080AB2EE2E
:100AA000020A03F0ADFA8F48F0EE482A9C38B0EE07
:100AB000682AF0EE491AB7EE001ADFED8F9AB1EE10
:100AC000080AF0EE690A03F09BFA8648F0EE482A1D
:100AD0006838B0EE682AF0EE491AB7EE001AF0EE68
:100AE000690AB1EE080A03F08BFA7E48F0EE482A54
:100AF0003438B0EE682AF0EE491AB7EE001AF0EE7C
:100B0000690AB1EE080A03F07BFA7A489C30DFEDFF
:100B10007B2A9FED7B2A9FED7B8AF0EE481AB0EE90
:100B2000481AF0EE480A9FED780A03F069FA714816
:100B3000D030DFED768AF0EE682A9FED759AF0EE00
:100B4000481AB0EE481AB0EE492AF0EE480AB0EE64
:100B50000C0A03F055FA6F48F0EE682AB0EE492A05
:100B6000F0EE481AB0EE481AF0EE480AB0EE000A6D
:100B700003F046FA67483430DFED672A9FED672AB5
:100B8000F0EE481A9FED661AF0EE480A9FED650AEE
:100B900003F036FA64490020C1F8B8026349012025
:100BA000C1F8A802624C642084ED028A84ED018AB7
:100BB00084ED038A01F000FC5648343090ED080AB9
:100BC000DFED5C0A5C4D30EE600ABDEEC00A84EDDC
:100BD000040A84ED070A594C02E059A004F0D0FC45
:100BE00028880028F9D002E05CA004F0C9FC28891C
:100BF0000028F9D002E060A004F0C2FC288A002896
:100C0000F9D002E063A004F0BBFC288B0028F9D0E7
:100C100002E067A004F0B4FC20880028F9D002E0CC
:100C20006BA004F0ADFC20890028F9D002E070A090
:100C300004F0A6FC208A0028F9D002E074A004F099
:100C40009FFC208B0028F9D002E079A004F098FCEA
:100C5000208C0028F9D002E07DA004F091FC208DCA
:100C60000028F9D002E082A004F08AFC208E00283F
:100C7000F9D002E086A004F083FC208F0028F9D090
:100C80008B4C608820B18BA004F07AFC914C06E07C
:100C900091A004F075FCF4E796A004F071FC94EDCB
:100CA000000AB5EEC00AF1EE10FAF5D098A004F0F3
:100CB00067FC05F06DFE4FF4FA7001F07DFB02E079
:100CC0008CA004F05DFC94ED000AB5EEC00AF1EED4
:100CD00010FAF5D0BDEC048B8DA0BDE8704004F097
:100CE0004FBC00005406002000007A4600007AC67F
:100CF0000000C84258070020CDCC4C3F00803B4547
:100D000000803BC5000000000000A04200007A45C2
:100D100000007AC55C08002000A00C4600A00CC6AC
:100D20009A99993F295C0F3D00004242008042425F
:100D30003C0000200051A34720090020D0080020DB
:100D40006D6F746F723120636F6E6E656374696F5F
:100D50006E206661696C7572650D0A006D6F746F47
:100D6000723220636F6E6E656374696F6E206661A8
:100D7000696C7572650D0A006D6F746F7233206354
:100D80006F6E6E656374696F6E206661696C7572F3
:100D9000650D0A006D6F746F723420636F6E6E653F
:100DA0006374696F6E206661696C7572650D0A0007
:100DB0006C61756E63683120636F6E6E6563746914
:100DC0006F6E206661696C7572650D0A0000000027
:100DD0006C61756E63683220636F6E6E65637469F3
:100DE0006F6E206661696C7572650D0A0000000007
:100DF0006C61756E63683320636F6E6E65637469D2
:100E00006F6E206661696C7572650D0A00000000E6
:100E10006C61756E63683420636F6E6E65637469B0
:100E20006F6E206661696C7572650D0A00000000C6
:100E30006C61756E63683520636F6E6E656374698F
:100E40006F6E206661696C7572650D0A00000000A6
:100E50006C61756E63683620636F6E6E656374696E
:100E60006F6E206661696C7572650D0A0000000086
:100E70006C61756E63683720636F6E6E656374694D
:100E80006F6E206661696C7572650D0A0000000066
:100E90006C61756E63683820636F6E6E656374692C
:100EA0006F6E206661696C7572650D0A0000000046
:100EB0005A0900205362757320636F6E6E65637408
:100EC000696F6E2073756363657373656465640D24
:100ED0000A000000B00900205362757320636F6E32
:100EE0006E656374696F6E206661696C7572650DFD
:100EF0000A000000616374696F6E20636F6E6E6537
:100F00006374696F6E206661696C7572650D0A00A5
:100F1000616374696F6E20636F6E6E656374696F71
:100F20006E207375636365737365646564000000A8
:100F3000FEE70000014800F008BE000004020020A7
:100F4000014800F002BE00002C02002000B58BB06A
:100F5000012205910021CDE9061203910491CDE90A
:100F60000821009101910291694600F0DDFC002802
:100F700001D000F026F90BB000BD30B589B00446B1
:100F80001220CDE9002000200290CDE903030246A3
:100F900006A803E08D5C8554521CD2B29A42F9D364
:100FA000024608AB6946204600F050FC10B1012013
:100FB00009B030BD204600F0B2FD0328FAD1002070
:100FC000F6E700002DED028BDFF89890DFF898B07F
:100FD0009FED268A264D274C41F2883A4FF07E58E5
:100FE000254889ED008A4FF4FA51CBF800A0464617
:100FF00001600AE010EE900AFFF7C6FA41EC100B10
:101000001EA053EC102B04F0BBFAD5ED040A30EE11
:10101000C80AB5EEC00AF1EE10FA01DC38EE600A3B
:1010200010EE100AB042E5DC41F287365FEA46076F
:10103000B4F902003044B84207D819A004F0A0FA6D
:10104000F6E720A004F09CFA02E041F63F76770034
:10105000B4F922003044B842F3D92348006905F0BE
:10106000CBFEBDE748000020500000200080A843D0
:10107000B0090020D00800205400002054686520EA
:10108000616E676C6520696E2070726F6772657340
:10109000732E20616E676C653D252E32660D0A0049
:1010A000546865206C61756E63685F4578703120A7
:1010B000697320616363656C65726174696E672E24
:1010C000200D0A00546865206C61756E63685F4589
:1010D00078703220697320616363656C6572617436
:1010E000696E672E200D0A0008000020014800F0FC
:1010F000F1BF0000F0030020014800F0EBBF00004A
:10110000B0040020014800F0E5BF000050040020BA
:10111000014800F0DFBF000010050020016818231F
:10112000CAB2103AB2FBF3F2054B6FF30901032A7E
:101130009B5CC36500D9091D8165084670470000A6
:10114000C081000810B5014600208B698A6A4FF003
:10115000C07453B1B3F5005F15D072B1012A0CD041
:10116000022A0AD0032A09D104E01AB1012A06D0C2
:10117000022A03D1C96AC90100D5012010BDC96A7C
:10118000A142FAD010BD002AF7D0012AF2D0022ADB
:10119000F3D0032AF3D010BD30B50468256825F4D8
:1011A00080252560046863608368402B036803D052
:1011B00099600068C26030BD9A600068C16030BD4F
:1011C000704772B6FEE7000070B5194C194841F639
:1011D000FF73218B02888A1A11B21344A2F5F852C8
:1011E000FF3A81801BB2C38012B20281002901DD67
:1011F0000D4600E04D42002B01DD1E4600E05E4240
:10120000B54200DB19464180002901DD0B4600E0B4
:101210004B42002A01DD154600E05542AB4200DB9F
:101220001146C2681144C160218B018070BD00006D
:1012300020090020800000202DE9F74F82B002989D
:1012400000680168C943C9067ED401684FF0000BED
:10125000406800900498DFF85C910168C9F80010BC
:101260004168C9F804100189A9F80810807A89F842
:101270000A004C461E210498FFF7D4F8A17894F890
:1012800000C06778E0788A460CEB070201441144FD
:10129000257963792944A27919441144E679227A9F
:1012A000314494F80980114401EB0804E4434249B5
:1012B000641CE4B20C70BCF1800F2DD1062F2BD131
:1012C000BAF1830F28D199F80A70A74224D181F886
:1012D00000B0452803D1522D01D1522B24D03749DB
:1012E0003038484340F2712115FB01F100EB011049
:1012F00003EB4301C1EBC31100EBC10006EBC601D8
:1013000001EB061100EB810002EB820100EB4100D2
:101310002B490144039801600499029805B01E22EC
:10132000BDE8F04F02F06CB9312A33D1B8F1300F7B
:1013300006D124A004F024F999F80800312829D115
:1013400099F80900342800E030E006D121A004F02B
:1013500017F999F8080031281CD199F809003528A7
:1013600006D122A004F00CF999F80800312811D117
:1013700099F80900362806D120A004F001F999F85F
:101380000800312806D199F809003828C4D125A0D1
:1013900004F0F6F899F808003228BDD199F8090050
:1013A0003628B9D125A004F0EBF8B5E705B0BDE8C3
:1013B000F08F0000C40800205C000020A08601001F
:1013C000E0DCF7FF4C6F7720426174746572790D31
:1013D0000A000000636163756C6174696F6E206957
:1013E000732077726F6E670D0A0000006F757420AE
:1013F0006F662072616E67650D0A00007765616B2C
:10140000207369676E616C206F7220746F6F206C3F
:101410006F6E67206D6561737572656D656E740DB5
:101420000A0000004C6967687420697320746F6F4C
:10143000207374726F6E670D0A0000006F75742060
:101440006F6620646973706C61790D0A000000009A
:1014500038B5044600680D460168C943C9067DD405
:10146000016840680090192229464648FEF7C1FFEE
:101470001E212846FEF7D6FF424801780F2979D170
:10148000B0F8011000F11A02C1F30A01118081784D
:10149000CB08C17843EA4113C3F30A0353800379AD
:1014A000890941EA8303417943EA8123C3F30A03AB
:1014B00093804B08817943EAC113C3F30A03D380B5
:1014C0000B09C17943EA0113C3F30A031381037AB9
:1014D000C90941EA4303417A43EA4123C3F30A03BA
:1014E00053818B08817A43EA8113C3F30A03938102
:1014F000C37A490941EAC301D1818189C1F30A0153
:101500001182417BCB08817B43EA4113C3F30A0379
:101510005382C37B890941EA8303017C43EA812327
:10152000C3F30A0393824B08417C43EAC113C3F31C
:101530000A03D3820B09817C43EA0113C3F30A0334
:101540001383C37CC90941EA4303017D43EA412374
:10155000C3F30A0353838B08417D01E011E009E0E6
:1015600043EA8113C3F30A039383807D490941EA67
:10157000C000D08329462046BDE838401E2202F034
:101580003FB838BD4009002038B5044600680D4614
:101590000168C943C9064AD40168406800901C220A
:1015A00029462348FEF725FF1E212846FEF73AFF6D
:1015B0001F4908780D2833D148780A2830D1887E11
:1015C0000A282DD1C87E0D282AD1A1F11800182291
:1015D000891CFEF70EFF1648183890ED000AB5EE8C
:1015E000C00AF1EE10FA03D2DFED120A30EE200A43
:1015F0000F4A1C3282ED040A90ED010A82ED020AC4
:1016000090ED020A82ED030A90ED030A82ED000AD2
:1016100090ED040A82ED010A90ED050A82ED050ABB
:1016200029462046BDE838401E2201F0E9BF38BDFA
:10163000940900200000B44302684F48A2F201223E
:10164000082A16D2DFE802F00416283A4C5F7285A9
:101650004A780B7802EB03220280CA788B7802EB7F
:10166000032242804A790B7902EB03228280897936
:10167000817170474A780B7802EB03220281CA78A5
:101680008B7802EB032242814A790B7902EB032229
:1016900082818979817370474A780B7802EB032243
:1016A0000282CA788B7802EB032242824A790B7954
:1016B00002EB032282828979817570474A780B7820
:1016C00002EB03220283CA788B7802EB0322428367
:1016D0004A790B7902EB03228283897981777047FB
:1016E0004A780B7802EB03220284CA788B7802EBEB
:1016F000032242844A790B7902EB0322828489799E
:1017000080F8261070474A780B7802EB0322028596
:10171000CA788B7802EB032242854A790B7902EB77
:1017200003228285897980F82E1070474A780B78D9
:1017300002EB03220286CA788B7802EB03224286F0
:101740004A790B7902EB03228286897980F8361078
:1017500070474A780B7802EB03220287CA788B78AD
:1017600002EB032242874A790B7902EB032282873C
:10177000897980F83E107047D00800200268294817
:10178000A2F50072013A17D0012A27D0022A37D0D9
:10179000032A10D14A780B7802EB03220283CA781D
:1017A0008B7802EB032242834A790B7902EB032206
:1017B00082838979817770474A780B7802EB03221C
:1017C0000280CA788B7802EB032242804A790B7937
:1017D00002EB032282808979817170474A780B7805
:1017E00002EB03220281CA788B7802EB032242814A
:1017F0004A790B7902EB03228281897981737047E0
:101800004A780B7802EB03220282CA788B7802EBCB
:10181000032242824A790B7902EB03228282897980
:10182000817570472009002090F82020012A07D0F8
:10183000022A05D0416A41F48021416201207047AB
:10184000006842690A43426100207047F0B590F891
:1018500020500468A468012D05D0022D03D0416AF0
:1018600041F480215DE014F0406F01D1E50055D5D1
:10187000C4F30164022C03D9416A41F4000150E031
:101880000125A5401D608D684FF4C0739DB1CE68E1
:1018900035434E6845EAC605066803EB0417F55163
:1018A0004FF4C275076805EB04150E697E51097D7A
:1018B000012905D009E00E88CD6845EA4655EBE7D9
:1018C00001684E5946F480764E511179D579567992
:1018D00041EA056195792D0445EA062529434FF42F
:1018E000C676056806EB0416A9511178D57841EA49
:1018F0000561957852782D0445EA022211434FF490
:10190000C475026805EB04155151006803EB04111E
:10191000425842F0010242500020F0BD416A41F4B9
:10192000001141620120F0BD10B590F82020012A7D
:1019300007D0022A05D0416A41F48021416201208A
:1019400010BD3B48D0F8002242F00102C0F800224E
:10195000D0F8002222F47C52C0F80022D0F80022F5
:101960004B6A42EA0322C0F800220A7D02F01F03FC
:1019700001229A40D0F81C329343C0F81C32CB6944
:10198000B3B9D0F80C329343C0F80C328C894B6851
:1019900064F31F434C6900EBC404C4F840320C8963
:1019A0000B6864F31F434C6900EBC404C4F8443271
:1019B000CB69012B16D1D0F80C321343C0F80C328E
:1019C0000C884B6864F31F434C6900EBC404C4F8F3
:1019D00040320C89CB6864F31F434C6900EBC404AC
:1019E000C4F844328B69002BD0F804320ED0134374
:1019F000C0F804320B69002BD0F8143208D013431E
:101A0000C0F81432096A012904D008E09343EFE7D3
:101A10009343F5E7D0F81C121143C0F81C12D0F81C
:101A2000001221F00101C0F80012002010BD0000DA
:101A300000640040704730B590F82040012C05D07C
:101A4000022C03D0416A41F480215DE00468002942
:101A500055D02469A40754D04FF4D874056804EB1A
:101A600001142D5915F00405956005682D594ED0C7
:101A7000ED08556005682C5904F00204D4604FF459
:101A8000DA74056804EB01142D5905F00F05156192
:101A900005682D59C5F30725956105682C59240C57
:101AA00054614FF4DC72046802EB0112A4581C70FC
:101AB0000468A458240A5C700468A458240C9C7020
:101AC0000468A258120EDA704FF4DE72046802EB5A
:101AD0000112A4581C710468A458240A5C7104689B
:101AE000A458240C9C710468A258120EDA71006884
:101AF00081B1016941F020010161002030BDE4683D
:101B0000A8E7416A41F400114162012030BD6D0D2A
:101B10001560AFE7C16841F02001C160EDE7024602
:101B2000002092F82010012901D002290CD111685F
:101B30008A68520100D501208A68120100D5401C34
:101B40008968C90000D5401C70472DE9F05F054643
:101B5000006800244669D0F804908768D0F80CB07B
:101B6000D0F810A0D0F81880F10748D0F90714D0A9
:101B700001218160B80703D5284600F04AFA0CE03D
:101B8000780702D54FF4006407E0380702D54FF418
:101B9000805402E0284600F03BFAF80516D5296883
:101BA0004FF480708860B80503D5284600F033FAFA
:101BB0000CE0780502D544F4005407E0380502D55E
:101BC00044F4804402E0284600F024FAF80316D5D5
:101BD00029684FF480308860B80303D5284600F0A8
:101BE0001CFA0CE0780302D544F4004407E0380303
:101BF00002D544F4803402E0284600F00DFA3007A4
:101C000007D55FEACB6004D52968102044F400743E
:101C1000C86070074FF0080707D55FEA0B7004D55E
:101C20002868C760284600F09BF9B00706D52868E9
:101C3000C068800702D0284600F094F9700607D5E6
:101C40005FEACA6004D52968102044F48064086102
:101C5000B00607D55FEA0A7004D5286807612846F0
:101C600000F0A6F9F00606D528680069800702D0C2
:101C7000284600F09EF9B00308D55FEAC96005D593
:101C8000296810204860284600F094F9F00307D531
:101C90005FEA097004D528684760284600F0BEF95D
:101CA000300446D55FEA497040D5F00504D55FEAB7
:101CB000C87001D044F00104B00504D55FEA887013
:101CC00001D544F00204700504D55FEA487001D5DF
:101CD00044F00404300529D518F0700F26D008F020
:101CE0007000402815D006DC102809D020280AD022
:101CF000302816D10AE050280ED0602811D10EE00D
:101D000044F008040DE044F010040AE044F020041C
:101D100007E044F0400404E044F0800401E044F4AF
:101D200080742868816921F070018161296804202C
:101D30004860002C05D0686A204368622846FFF797
:101D400079FEBDE8F09F70B5040003D094F8200040
:101D500010B104E0012070BD204600F081F8206839
:101D6000016841F00101016000F036FC05460526DE
:101D700004E000F031FC401B0A2811D820684068BC
:101D8000C007F6D02068016821F00201016000F070
:101D900023FC05460BE000F01FFC401B0A2806D977
:101DA000606A40F40030606284F82060D2E7206806
:101DB00040688007EFD4207E0128206801683DD06C
:101DC00021F080010160607E01282068016838D020
:101DD00021F040010160A07E01282068016833D015
:101DE00021F020010160E07E0128206801682ED0EA
:101DF00041F010010160207F01282068016829D08E
:101E000021F008010160607F01282068016824D06A
:101E100021F004010160D4E902010843D4E904126D
:101E2000114308436168491E08432168C8610020C6
:101E30006062012084F82000002070BD41F0800124
:101E4000C0E741F04001C5E741F02001CAE721F0B9
:101E50001001CFE741F00801D4E741F00401D9E7D0
:101E6000F0B587B0044614216846FEF7DBFA374B1D
:101E70003748DFF8D4E01968D4F800C0344A0225A6
:101E80000326092710300024491CF44524D1196089
:101E9000012907D1016841F000710160006800F07C
:101EA00000700590106840F001001060106802ABEF
:101EB00000F0010005904FF4C050CDE9000583E823
:101EC000D0006946234800F089FA0022012114203D
:101ED00000F00EFC142033E0DFF87CE0F44531D153
:101EE000D0F800C04CF0806CC0F800C0D0F800C042
:101EF00001290CF0806CCDF814C0196007D101687D
:101F000041F000710160006800F0007005901068F9
:101F100040F002001060106802AB00F00200059073
:101F20004FF44050CDE9000583E8D00069460B48E6
:101F300000F054FA00220121402000F0D9FB40209B
:101F400000F0C8FB07B0F0BD006400403400002082
:101F500030380240000002400068004000040240A7
:101F60007047000000B5114989B088420ED107AB17
:101F70006A460021FFF75FFD002805D107A96846E2
:101F8000FFF7FCFBFFF720F909B000BD0749283136
:101F90008842F9D107AB6A460021FFF74CFD0028C3
:101FA000F2D107A96846FFF747FBEDE704020020DE
:101FB000704770477047000070B5044690F82000E5
:101FC000012804D0606A40F40020606218E002201A
:101FD00084F820002068016821F00101016000F010
:101FE000FBFA05460EE000BF00F0F6FA401B0A2897
:101FF00008D9606A40F400306062052084F820004F
:10200000012070BD20684068C007EDD1606270BDDE
:1020100070477047704770477047704770472DE9A9
:10202000F0410446876D00F0D7FA064694F8350073
:102030000025022806D08020606584F834500120F5
:10204000BDE8F0812068016821F016010160206878
:10205000416921F080014161206C08B9A06C20B178
:102060002068016821F0080101602068016821F002
:10207000010101600CE000F0AFFA801B052807D9D0
:1020800020206065032084F8350084F83450D7E7B9
:1020900020680068C007EED194F85C103F208840AB
:1020A000B860012084F8350084F834500020C7E778
:1020B00090F83510022903D0802141650120704736
:1020C000052180F835100068016821F001010160E8
:1020D000002070472DE9F84304464FF00009CDF881
:1020E000009063484FF41651A56D0068B0FBF1F7FE
:1020F0002E6894F85C10082000FA01F131420FD0EC
:1021000021680A6852070BD50A6822F004020A60A7
:1021100094F85C108840A860606D40F00100606534
:1021200094F85C104FF0010808FA01F0304208D032
:1021300021684969090604D5A860606D40F0020075
:10214000606594F85C1004208840304208D0216813
:102150000968890704D5A860606D40F004006065D7
:1021600094F85C1010208840304218D0216809682B
:10217000090714D5A86020680168490304D50068E0
:10218000000308D5A16C07E00168C90503D4016804
:1021900021F008010160216C09B12046884794F8BC
:1021A0005C1020208840304231D021680968C9067F
:1021B0002DD5A86094F8350005282068016806D060
:1021C000490347D5006800031DD4616C1CE021F071
:1021D000160101602068416921F080014161206C95
:1021E00008B9A06C20B12068016821F008010160E5
:1021F00094F85C103F208840A86084F8358084F80B
:102200003490216D1FE0E16B09B120468847606D75
:1022100000282BD0606DC00714D0052084F835004D
:102220002068016821F0010101600098401C0090C5
:10223000B84203D820680068C007F6D184F835801A
:1022400084F83490E16C002910D001B02046BDE83C
:10225000F04308470168C905D5D4016821F0100191
:10226000016084F8358084F83490CCE7BDE8F883C9
:10227000380000202DE9F041044600F0ADF9064693
:102280005CB1022084F83500002584F834502068C1
:10229000016821F0010101600DE00120BDE8F0813D
:1022A00000F09AF9801B052805D9202060650320DD
:1022B00084F83500F2E720680068C007F0D1226892
:1022C000116820480140D4E901031843D4E90336DA
:1022D0003343184363691843A3691843E3691843F8
:1022E000236A18430843616A042903D1D4E90B1314
:1022F00019430843106020684069666A20F00701AE
:1023000030460E43012704280CD1A06A0643E06A38
:1023100040B12046FEF716FF20B14020606584F8EA
:102320003570BAE7206846612046FEF7F7FE94F85C
:102330005C203F2191408160656584F83570002004
:10234000ACE700003F8010F02DE9F0410446866DB7
:1023500090F83400002501280DD0012084F83400C5
:1023600094F835700020012F07D084F8340002253E
:102370002846BDE8F0810220FBE7022784F835708B
:1023800060652046FEF708FF94F85C103F20884007
:10239000B0602068016841F016010160206C20B136
:1023A0002068016841F0080101602068016841F07F
:1023B00001010160DCE7000070B5044600F00CF993
:1023C0000546601C02D004480078044400F004F97B
:1023D000401BA042FAD370BDE80000202DE9F84F61
:1023E000DFF8BCA10022012503264FF00F090AF1F6
:1023F000040BAAF1040E00BF0B6805FA02F4234097
:10240000A34270D10F7907F00307012F01D0022FEB
:1024100016D187684FEA420806FA08FC27EA0C073B
:10242000D1F80CC00CFA08FC4CEA070CC0F808C044
:102430004768A7430C79C4F3001494403C434460BC
:102440000C79E443A4070AD0C4684FEA420C06FAA8
:102450000CF7BC438F6807FA0CF72743C7600C7969
:1024600004F00304022C12D1D40800EB840CDCF835
:1024700020405707FF0E09FA07F824EA0804D1F8AC
:10248000108008FA07F848EA0408CCF820800468AD
:102490004FEA420C06FA0CF7BC430F7907F003072A
:1024A00007FA0CF7274307604C6814F4403F70D0DC
:1024B0003C4C276847F480472760246822F00307D4
:1024C00004F480440094384C07EB040CDCF8084812
:1024D00097074FEA177809FA08F7BC43334FB84219
:1024E00002D1002724E054E0314FB84201D1012746
:1024F0001EE0304FB84201D1022719E02E4FB842FA
:1025000001D1032714E02D4FB84201D104270FE079
:102510002B4FB84201D105270AE02A4FB84201D11A
:10252000062705E0284FB84201D1072700E0082719
:1025300007FA08F72743CCF80878DAF8004057463E
:10254000D1F804C09C435FEACC2C00D51C433C600E
:10255000DBF800405F46D1F804C09C435FEA8C2C56
:1025600000D51C433C60DEF800407746D1F804C03B
:102570009C435FEA8C3C00D51C433C60084F083FFD
:102580003C68D1F804C09C435FEACC3C00D51C43B6
:102590003C60521C102AFFF42FAFBDE8F88F0000FA
:1025A000083C014044380240003001400000024035
:1025B0000004024000080240000C024000100240EB
:1025C0000014024000180240001C02400AB1816160
:1025D00070470904FBE7000001488068704700006D
:1025E000E800002002488168027811448160704749
:1025F000E80000200B4810B5016841F4007101604B
:10260000016841F480610160016841F480710160FA
:10261000032000F08DF80F2000F006F800F03EF8DF
:10262000002010BD003C024010B5014688B00022D9
:10263000192000F05DF8192000F04CF81348002430
:10264000016841F001010160006805A900F0010086
:102650000690684600F018F900F046F90C490D4A5A
:10266000B0FBF1F10C48491E026040F2E732C0E9CC
:102670000324C0E9011400F02FFB10B1012008B0C1
:1026800010BD054800F074FBF9E700004438024033
:1026900040420F0000000140700500200C4882B04D
:1026A000016841F480410160006800F480400090BE
:1026B0000748001F016841F0805101600068002256
:1026C00000F0805000900F21901E02B000F010B872
:1026D00044380240002809DB00F01F02012191402C
:1026E0004009800000F1E020C0F8001170470000B0
:1026F000F0B40E4B1B680C46C3F30223C3F107056D
:10270000042D00D90425191D072901D2002300E05A
:10271000DB1E012606FA05F1491E214099409E4024
:10272000761E16403143F0BC02F04EBF0CED00E0C7
:10273000064900F0070208684FF6FF03184040EA18
:102740000220034A10430860704700000CED00E0CF
:102750000000FA052DE9F0470E46050065D0DFF8C8
:102760001481D8F80000F7B200F00700B04207D299
:1027700088F80070D8F8000000F00700B04254D18B
:1027800028683D4C810712D5400703D5206840F4E6
:10279000E05020602878000703D5206840F46040AE
:1027A00020602068A96820F0F000084320602878A5
:1027B000C0072DD0304968680839012812D0022896
:1027C00013D0032811D00968890700292DDA216860
:1027D00021F0030101432160FFF7FEFE814641F233
:1027E000883A0EE009688903EFE709688901ECE798
:1027F000FFF7F2FEA0EB0901514502D90320BDE825
:10280000F0872068696800F00C00B0EB810FEFD111
:10281000D8F80010404601F00701B14207D907700F
:10282000006800F00700B04201D00120E7E72878F7
:10283000400705D52068E96820F4E050084320608F
:102840002878000706D52068296920F4604040EA0E
:10285000C100206000F058F82168084AC1F3031154
:10286000515CC8400649086006480068FFF7DCFE76
:102870000020C4E7003C024008380240907900087C
:1028800038000020EC0000200F2202600C4A136880
:1028900003F003034360136803F0F00383601368DD
:1028A00003F4E053C36012684FF4E05303EAD2022A
:1028B00002610448006800F00700086070470000EB
:1028C00008380240003C0240044805490068096895
:1028D000044AC1F38221515CC8407047380000208F
:1028E00008380240A07900080448054900680968D2
:1028F000044AC1F34231515CC8407047380000209F
:1029000008380240A0790008154810B5006810F09A
:102910000C02144813D04110042A0FD0082A0ED1FB
:102920000F4C241F2268236802F03F025B0207D588
:102930002068C0F38810A0FB010106E0084610BD26
:102940002168C1F38811A1FB00010023FDF720FDE0
:102950002168C1F30141491C4900B0FBF1F010BDF1
:10296000083802400024F4002DE9F84F04006ED02E
:102970002078DFF84C93C007A9F104054AD009F18B
:1029800004000168C1F38101012908D00068C0F387
:10299000810002280AD1D9F80000400206D5286833
:1029A000800337D560680028E1D033E06068B0F577
:1029B000803F10D0B0F5A02F286810D020F48030D0
:1029C0002860286820F4802028606068A8B1FFF79C
:1029D00003FE06460DE0286840F48030F4E740F43A
:1029E00080202860F7E700BFFFF7F6FD801B642812
:1029F00073D828688003F7D50CE0FFF7EDFD064695
:102A000005E000BFFFF7E8FD801B6428F0D82868C8
:102A10008003F7D42078DFF8AC8280074FF0000AFB
:102A20003ED5A748001D016811F00C0F08D00068C2
:102A3000C0F3810002280BD1D9F80000400207D46E
:102A40002868800716D5E068012800D112E033E13C
:102A5000E068B8B10120C8F80000FFF7BDFD0646E8
:102A600005E000BFFFF7B8FD801B0228C0D828682A
:102A70008007F7D52868216920F0F80040EAC100F6
:102A800028600DE0C8F800A0FFF7A6FD064604E0A8
:102A9000FFF7A2FD801B02281FD828688007F7D403
:102AA0002078000722D5864F87486169703771B159
:102AB00001210160FFF790FD064604E0FFF78CFD61
:102AC000801B022809D838688007F7D50EE0C0F8C7
:102AD00000A0FFF781FD064605E082E0FFF77CFDE0
:102AE000801B02287DD838688007F7D420784007FB
:102AF00068D5DFF8CCB100270BF13C0BDBF8000008
:102B0000C0000BD4DBF8001041F08051CBF800106E
:102B1000DBF80000012700F0805000906B4E306819
:102B2000C00510D4306840F480703060FFF754FD69
:102B3000009005E0FFF750FD0099401A022850D898
:102B40003068C005F6D55E4EA0686C3601280FD0FF
:102B50000528306810D020F001003060306820F087
:102B600004003060A068B8B1FFF736FD00900FE0B8
:102B7000306840F00100F4E740F004003060F7E70F
:102B8000FFF72AFD0099411A41F28830814266D848
:102B900030688007F4D50EE0FFF71EFD009007E0D7
:102BA000FFF71AFD0099411A41F28830814256D848
:102BB00030688007F4D42FB1DBF8001021F0805189
:102BC000CBF80010A069C8B33D49091D0968C1F3DD
:102BD000810102294AD00228504607D0C8F8600077
:102BE00000E03CE0FFF7F8FC04463BE04746C8F84D
:102BF0006000FFF7F1FC064605E000BFFFF7ECFCC4
:102C0000801B02282BD828688001F7D4D4E907015B
:102C10000843A16A2E4A490802EB0141626A41EA6F
:102C20008211084394F82C1040EA0161C9F80010A1
:102C300001203866FFF7D0FC044606E03EE000BF06
:102C4000FFF7CAFC001B022809D828688001F7D5C5
:102C500034E000BFFFF7C0FC001B022802D90320AC
:102C6000BDE8F88F28688001F4D427E00128F7D068
:102C7000D9F80000E26900F4800191421CD1226A77
:102C800000F03F01914217D147F6C071626A0140DE
:102C9000B1EB821F10D1A26A4FF0FF3300F4403134
:102CA00003EB5202B1EB024F06D194F82C1000F066
:102CB0007060B0EB016F01D00120D1E70020CFE7B9
:102CC0000438024000004742800E47420070004036
:102CD0000000FFFF7047704710B5040003D094F860
:102CE0003D0010B107E0012010BD002084F83C0039
:102CF000204600F01FF8022084F83D00211D2068C6
:102D000002F026F9012084F8460084F83E0084F899
:102D10003F0084F8400084F8410084F8420084F8C1
:102D2000430084F8440084F8450084F83D00002006
:102D300010BD000008B500680B49884212D10B484D
:102D4000016841F4803101600068002200F48030A5
:102D5000009011461820FFF7CBFCBDE80840182072
:102D6000FFF7B8BC08BD00000040014044380240F5
:102D700090F83D10012901D001207047022180F810
:102D80003D100168CA6842F00102CA60006811493A
:102D9000884214D0B0F1804F11D00F4988420ED034
:102DA0000E4988420BD00E49884208D00D4988420E
:102DB00005D00D49884202D00C49884204D181686F
:102DC00001F00701062903D0016841F0010101600B
:102DD000002070470000014000040040000800404F
:102DE000000C004000040140004001400018004079
:102DF00070B5044690F83C000025012817D0012644
:102E000084F83C60022084F83D002068826822F04B
:102E1000770222F47F4282600868502838D00DDCA7
:102E200020284FD005DC90B3102811D14AE00220B1
:102E300070BD302846D040280AD13BE060282FD012
:102E400070280DD0B0F5805F03D0B0F5005F12D0D0
:102E5000012584F83D60002084F83C00284670BDC0
:102E6000CB68D1E90121206802F0D6F8206881689A
:102E700041F0770109E0CB68D1E90121206802F037
:102E8000CBF82068816841F480418160E1E719E076
:102E9000CA684968206802F0D1F85021206806E02D
:102EA000CA684968206802F0DAF86021206802F0F8
:102EB000BDF8CEE7CA684968206802F0BFF8402133
:102EC0002068F4E7226801461046F0E7704770B5C5
:102ED0000446006801694FF00005C943890715D40D
:102EE000C168C943890711D4E91E01610120207717
:102EF000206880698007204602D0FFF7E7FF04E0E2
:102F000000F098F8204600F096F8257720680169CF
:102F1000C943490717D4C168C943490713D46FF09F
:102F200004010161022020772068806910F4407F4D
:102F3000204602D0FFF7CAFF04E000F07BF82046ED
:102F400000F079F8257720680169C943090716D48C
:102F5000C168C943090712D46FF008010161042058
:102F600020772068C0698007204602D0FFF7AEFFB7
:102F700004E000F05FF8204600F05DF82577206857
:102F80000169C943C90617D4C168C943C90613D426
:102F90006FF010010161082020772068C06910F4EB
:102FA000407F204602D0FFF791FF04E000F042F896
:102FB000204600F040F8257720680169C943C90719
:102FC00008D1C168C943C90704D1891E01612046DF
:102FD00000F032F820680169C943090609D4C168C4
:102FE000C943090605D46FF0800101612046FFF74F
:102FF00071FE20680169C943490609D4C168C94303
:10300000490605D46FF040010161204600F02CF81C
:1030100020680169C94389060BD4C168C943890680
:1030200007D46FF0200101612046BDE87040FFF732
:1030300052BE70BD7047704710B50446006808491D
:10304000884201D1FFF7CEFA0648844206D101F04A
:10305000F7FCBDE810400348FFF78ABE10BD000032
:103060000000014054020020704770477047000084
:10307000F8B5016804460868CA684B6910F00F0F7C
:103080004FF0000559D003F0010602F49077374362
:1030900065D0C10705D0D10503D5216C41F00101F0
:1030A0002164410705D5D90703D0216C41F0020105
:1030B0002164810705D5D90703D0216C41F00401B3
:1030C0002164010707D502F02001314303D0216CB0
:1030D00041F008012164216C00293AD0800604D512
:1030E000900602D5204602F08FF820684069216CD6
:1030F000C0F38010090700D460B3204602F04FF8F7
:1031000020684069400621D52068143050E8001F2F
:1031100021F0400140E80012002AF5D1A06BA8B1CF
:103120006C490165A06BFEF7C3FF002811D0A06BAE
:10313000016D01B0BDE8F040084783060FD5930646
:103140000DD52046BDE8F84002F05EB82046FFF7F6
:103150008DFFF8BD2046FFF789FF2564F8BD266B7B
:103160002023012E79D1C60677D5D60675D50868F5
:10317000486800904869400640D5A16B08684068DF
:103180000004000CEAD0A28D8242E7D9E085C8692C
:10319000B0F5807F2DD020680C3050E8001F21F45E
:1031A000807140E80012002AF5D12068143050E800
:1031B000001F21F0010140E80012002AF5D120682B
:1031C000143050E8001F21F0400140E80012002AAE
:1031D000F5D184F83E30256320680C3050E8001F9C
:1031E00021F0100140E80012002AF5D1A06BFEF793
:1031F00016FFA08DE18D401A81B229E0A08DE18DEE
:10320000401A81B2E08D0028A8D00029A6D02068FD
:103210000C3050E8002F22F4907240E80026002E77
:10322000F5D12068143050E8002F22F0010240E868
:103230000026002EF5D184F83E30256320680C303E
:1032400050E8002F22F0100240E80023002BF5D1B7
:103250002046FFF70AFFF8BDFFE705062BD5150648
:1032600029D594F83D002128F5D1A068B0F5805FFC
:1032700001D12069B0B1206A411C21622168007827
:103280004860E08C401E0004000CE084E3D120681C
:10329000C16821F08001C1602068C16841F040012F
:1032A000C160D8E7206A0088C0F308004860206A3F
:1032B000801C2062E5E74006CDD55006CBD5CA6814
:1032C000204622F04002CA6084F83D3000F0AFF999
:1032D000C1E70000A950000870B5040004D094F8BC
:1032E0003D00002510B106E0012070BD84F83C507F
:1032F000204600F023F8242084F83D002068C168AF
:1033000021F40051C160204601F0DEFF2068016910
:1033100021F4904101612068416921F02A01416155
:103320002068C16841F40051C1602564202084F800
:103330003D0084F83E00002070BD00002DE9F04FF4
:1033400087B0054614216846FDF76CF89F489F49F1
:103350009D4FD5F800C00024103902220323061522
:103360004FF0080E4FF000694FF4803ABC454AD147
:10337000076847F480170760006800F48010059024
:10338000086840F004000860086800F00400059038
:10339000086840F0080008600868CDE9024300F0C2
:1033A000080005908814CDE9000290469B467746B8
:1033B0006946CDF810E08648FFF710F80420CDE903
:1033C0000008CDE9024B694604978248FFF706F8EA
:1033D000824F81483860C7E90194C7E903467C61A0
:1033E000BC61C7E9074A38467C62FEF743FF08B173
:1033F000FDF7E7FEAF63002202213520BD63FFF732
:1034000077F9352065E0DFF8D881DFF8C0B107270C
:103410000BF1040BC4451FD1DBF8005045F010053B
:10342000CBF80050DBF8000000F0100005900868B1
:1034300040F0010008600868694600F0010005904E
:103440004FF4C0608DE81500CDE903376548FEF7FD
:10345000C5FF07B0BDE8F08FDFF88C81C4453BD1D4
:10346000D0F800C04CF4003CC0F800C0006800F484
:1034700000300590086840F001000860086869465F
:1034800000F0010005900C208DE81500CDE9033710
:103490005448FEF7A3FF514F4F48603778303860EB
:1034A000C7E90194C7E903467C614FF44030BC6131
:1034B000C7E9074038467C62FEF7DCFE08B1FDF73D
:1034C00080FEAF63002201212620BD63FFF710F9C3
:1034D0002620FFF7FFF8BCE7DFF81081C44538D19C
:1034E000D0F800C04CF4802CC0F800C0006800F494
:1034F00080200590086840F002000860086869466E
:1035000000F0020005904FF440608DE81500CDE911
:1035100003373748FEF762FF304F2F48C037183067
:103520003860C7E90194C7E903467C61BC61C7E91B
:10353000074A38467C62FEF79DFE08B1FDF741FE62
:10354000AF63002201212720BD63FFF7D1F82720B8
:10355000BFE728488445BED1DBF8007047F020075C
:10356000CBF80070DBF8000000F020000590086840
:1035700040F0040008600868694600F00400059007
:10358000C0208DE81500CDE9033E1148FEF726FF67
:103590001A4F194838608005C7E90104C7E9034696
:1035A0007C61BC61C7E9074A38467C62FEF762FE6F
:1035B00008B1FDF706FEAF63002202214720BD637C
:1035C000FFF796F8472084E700500040403802405B
:1035D00000080240000C024010600240F00300208E
:1035E000001001400000024000440040004800403C
:1035F000000402400014014028640240100500202D
:1036000090F83E30202B0ED159B152B190F83C3099
:10361000012B08D0012380F83C300023036301F024
:10362000D9BE01207047022070477047704770472D
:10363000FEE7000070B501220B4D1402214628461A
:10364000FEF7C4FF0122560231462846FEF7BEFFB0
:10365000002231462846FEF7B9FF21462846BDE83C
:1036600070400022FEF7B2BF0004024070B5094C62
:10367000012211022046FEF7A9FF65150022294606
:103680002046FEF7A3FF29462046BDE870400122F0
:10369000FEF79CBF0004024070B50122064D1402E3
:1036A00021462846FEF792FF21462846BDE8704095
:1036B0000022FEF78BBF0000000402400A4D0B4CB5
:1036C000287868B9002001F025F92070012802D07F
:1036D000022802D004E0606800E0206903F00AFBE1
:1036E000012002F06BFCEBE73C000020080000200A
:1036F000104810B50E4901600621416000214FF4C9
:1037000080328160C0E903124FF4401242610176B9
:10371000012242768176C17601774177FEF713FB6D
:10372000002803D0BDE81040FDF74BBD10BD0000E0
:103730000064004004020020104810B50E490160EA
:103740000621416000214FF480328160C0E90312FC
:103750004FF4401242610176012242768176C176B1
:1037600001774177FEF7EFFA002803D0BDE810405B
:10377000FDF727BD10BD0000006800402C020020AE
:10378000194808B5016841F400110160016801F4AD
:1037900000110091016841F480010160006800227D
:1037A00000F48000009005210B20FEF7A1FF0B2004
:1037B000FEF790FF002205210C20FEF799FF0C2058
:1037C000FEF788FF002205211020FEF791FF102050
:1037D000FEF780FF002205213920FEF789FFBDE8B2
:1037E00008403920FEF776BF3038024010B5124A43
:1037F0000021124802F01EFC114C0F4A00216060AB
:103800002432104802F016FC0B4AA0604832002116
:103810000D4802F00FFC084AE0606C3200210B48B2
:1038200002F008FC2061606803F0E6FA2069BDE858
:10383000104003F0E1BA000000790008F9420008E6
:1038400008000020BD360008B13E0008C50F000882
:103850002DE9F04F87B014216846FCF7E3FD43489B
:103860000024016841F020010160016801F020019D
:103870000591016841F080010160016801F080015B
:103880000591016841F001010160016801F0010149
:103890000591016841F010010160016801F010011B
:1038A0000591016841F002010160016801F0020127
:1038B0000591016841F040010160016801F040019B
:1038C0000591016841F004010160016801F0040103
:1038D0000591016841F0080101600068DFF89080FF
:1038E00000F008004FF4C0650590002229464046CC
:1038F000FEF76CFEDFF87C902E0100223146484630
:10390000FEF764FEDFF870A0002280215046FEF72B
:103910005DFEDFF868B06F10002239465846FEF7AA
:1039200055FE00950125CDE90154694640460394B2
:10393000FEF754FD0096CDE90154694648460394CC
:10394000FEF74CFD80200090CDE9015469465046B9
:103950000394FEF743FD0097CDE9015469465846AC
:103960000394FEF73BFD07B0BDE8F08F303802400E
:1039700000140240001002400018024000040240FF
:103980001FB5002110480091019102910D4A039149
:1039900002605322C0E9012141F28732C0E90321CC
:1039A0008161FFF799F908B1FDF70BFC4FF48050E6
:1039B000009069460448FFF71BFA002801D0FDF784
:1039C00000FC1FBD00400140540200200C4810B50F
:1039D0000A4901604FF416514160002181600C22B8
:1039E000C160C0E904128161C161FFF775FC002864
:1039F00003D0BDE81040FDF7E4BB10BD005000400F
:103A00009C0200200C4810B50A4901604FF4E131D6
:103A10004160002181600C22C160C0E90412816113
:103A2000C161FFF759FC002803D0BDE81040FDF745
:103A3000C8BB10BD00100140E00200200E4810B5C8
:103A40000C4901600D4941604FF48051816049008B
:103A5000C160C91001610C21416100218161C16116
:103A6000FFF73AFC002803D0BDE81040FDF7A9BBE2
:103A700010BD00000044004024030020A086010087
:103A80000C4810B50A4901604FF4E1314160002152
:103A900081600C22C160C0E904128161C161FFF73D
:103AA0001BFC002803D0BDE81040FDF78ABB10BD09
:103AB00000480040680300200C4810B50A49016026
:103AC0004FF416514160002181600C22C160C0E9B1
:103AD00004128161C161FFF7FFFB002803D0BDE83C
:103AE0001040FDF76EBB10BD00140140AC03002078
:103AF000FEE700002DE9F041DFED2E0A15462DED21
:103B0000028B20EE200ADFED2C0A0E460746C0EE9F
:103B1000208AB0EE680AFCF7B5FB284CD4ED060A03
:103B200020EE208AB0EE680AFCF7E8FBD4ED070A25
:103B300000EE208AB0EE680A84ED038AFCF7A2FB4F
:103B4000D4ED070A20EE208AB0EE680AFCF7D6FB17
:103B5000D4ED060AFEEE001A00EE608A84ED048AB7
:103B6000D4ED030A94ED050A20EEA12ADFED141A24
:103B700030EE801A08EE612A84ED001A68EE211AF0
:103B800032EE002A84ED012AB6EE002A40EEC21A77
:103B900031EE800A84ED020A85ED001A94ED010AE7
:103BA00087ED000A94ED020A86ED000ABDEC028B57
:103BB000BDE8F081DB0F4940000034439C00002049
:103BC000D0B35D3FFEE70000304B10B51A88304897
:103BD000A2F2FF3202625988A1F2FF3141629C8851
:103BE000A4F233148462DB88A400A3F2FF33C0E99B
:103BF0000B3401D50024046300EE102A002AF8EEED
:103C0000C00A9FED240A80EE801A00EE901AF8EEAA
:103C1000E01AC1EE800A00EE104A80ED101AF8EEAC
:103C2000C01A21EE211AC0ED110A80ED061AB8EE75
:103C3000C01A60EE810AC0ED070A00DC5242DFEDD7
:103C4000160AC82A08DA002900DC4942C82903DA22
:103C5000C0ED070AC0ED060A002B01DD194600E0A1
:103C6000594264290FDD643B00EE903ADFED0B1AF8
:103C7000B8EEC00AB8EEE01AC1EE210A20EE800AC2
:103C800080ED050A10BDC0ED050A10BD5A090020DF
:103C90009C000020000044440000000000002B4471
:103CA00070B50024002104F1B00000F0FAF8002102
:103CB000084600F0F6F80021102000F0F2F8002588
:103CC0000121002000F0EDF86D1CEDB2802DF7D33E
:103CD000641CE4B2082CE5D370BD10B50021AE2001
:103CE00000F0DFF80021022000F0DBF800211020B6
:103CF00000F0D7F80021402000F0D3F80021B020D8
:103D000000F0CFF80021812000F0CBF80021FF2047
:103D100000F0C7F80021A12000F0C3F80021A62080
:103D200000F0BFF80021A82000F0BBF800213F20E0
:103D300000F0B7F80021C82000F0B3F80021D3202C
:103D400000F0AFF80021084600F0ABF80021D520C4
:103D500000F0A7F80021802000F0A3F80021D8206F
:103D600000F09FF80021052000F09BF80021D920E9
:103D700000F097F80021F12000F093F80021DA20FC
:103D800000F08FF80021122000F08BF80021DB20DA
:103D900000F087F80021302000F083F800218D200A
:103DA00000F07FF80021142000F07BF80021BDE82E
:103DB0001040AF2000F075B810B50A460446002147
:103DC00002F1B00000F06DF8102040EA141000215C
:103DD00000F067F804F00F00BDE81040002100F08B
:103DE00060B800002DE9F041203A00240D468046DD
:103DF000D6B27F2803D900208D1C8046EDB2102B4F
:103E0000294610D0FFF7D8FF164906EB460001EB14
:103E100040050121285D00F044F8641CE4B2062C42
:103E2000F7D3BDE8F081FFF7C7FF0F4F04EB061093
:103E30000121385C00F035F8641CE4B2082CF5D39D
:103E40006D1CE9B24046FFF7B7FF002404EB0610F3
:103E500038440121007A00F024F8641CE4B2082CF4
:103E6000F4D3DEE7A8790008D07B00082DE9F04103
:103E7000984617460E46044600250DE04346314657
:103E80002046FFF7AFFF0834E4B2782C02D90024B3
:103E9000B61CF6B26D1CEDB27A5D002AEED1BDE81B
:103EA000F081C0B209B101F054BB01F03BBB00008E
:103EB00086B0DFF8F0A0DFF8F0B0DFF8F080DFF8D0
:103EC000F09000BFDAF800303AA13D48DBF800205E
:103ED00001F066FB00211023394A0846FFF7C6FFB0
:103EE000D8F80400FCF750FB04460D46D8F8000053
:103EF000FCF74AFB41EC100B32A153EC102B30487D
:103F0000CDE9004501F04CFB10232D4A0221002091
:103F1000FFF7ACFFD8F81000FCF736FB41EC100BB4
:103F20002BA153EC102B264801F03AFB1023244A16
:103F300004210020FFF79AFF274828A102682048A3
:103F400001F02EFB10231E4A06210020FFF78EFFF2
:103F5000D8F81000FCF718FB06460F46D8F8040006
:103F6000FCF712FB04460D46D8F80000FCF70CFBEA
:103F700041EC100B1B4853EC102B4088CDE903702B
:103F80008DE8700018A001F0FBFAD9F8A412484699
:103F900031B10021C0F8A412322002F00FF891E7ED
:103FA0000121F7E70400002000000020B0090020F4
:103FB000008042424A473A256420256420000000E0
:103FC00078010020252E326620252E326620000042
:103FD000252E326620000000CC00002025303664FB
:103FE000000000005A090020252E32660D09252EFA
:103FF00032660D09252E32660D0925640D0A000072
:1040000080EC030A9FED090A80ED090A80ED080A99
:1040100080ED060A80ED070A80ED050A80ED040AAE
:1040200080ED030A2830C0EC031A7047000000003E
:1040300090ED070AD0ED080AB0EE002A30EE601AC3
:1040400080ED031AD0ED041AD0ED000A31EE610ABA
:1040500020EE200AD0ED010A00EE810AF0EE410ABE
:1040600041EEC20A90ED052A70EE820A90ED022A16
:1040700002EE200A80ED090AD0ED0B0AB4EEE00A48
:10408000F1EE10FA02DDB0EE402A01E0B0EE602A57
:10409000D0ED0C2AB4EEE22AF1EE10FA07D2B4EE1B
:1040A000E00AF1EE10FA04DCB0EE600A01E0B0EED6
:1040B000620A80ED090AC0ED051A80ED041A704706
:1040C00040490A88521C92B20A80642A01D1002217
:1040D0000A8090ED073AD0ED080A73EE601AC0ED41
:1040E000031AD0ED060A70EEA10AC0ED060A90EDA3
:1040F0000A1AB5EEC01AF1EE10FA08D0B4EEE01AC2
:10410000F1EE10FA01D2F0EE410AC0ED060AD0ED50
:10411000000A90ED011A90ED062A60EEA10A41EE28
:10412000020A90ED041A90ED022A31EEC11A42EE15
:10413000010AC0ED090A90ED0B1AF4EEC10AF1EE86
:1041400010FA02DDB0EE602A01E0B0EE412AD0EDB7
:104150000C2AB4EEE22AF1EE10FA07D2F4EEC10A0C
:10416000F1EE10FA04DCF0EE410A01E0F0EE620A32
:10417000F5EEC01AC0ED090AF1EE10FA02DDF0EE1C
:10418000610A01E0F1EE610AB5EEC00AF1EE10FA43
:1041900001DCB1EE400AF4EEC00AF1EE10FA0DD2E5
:1041A000B5EEC03AF1EE10FA08D10988052905D814
:1041B0009FED050A80ED060A80ED090AC0ED041A9C
:1041C00070470000E40000200000000090ED082A85
:1041D000D0ED071A32EE610A9FED461A72EE010A1F
:1041E00031EE811AB5EEC00A70EEE10A32EE411AE4
:1041F000F1EE10FA02DDF0EE401A01E0F1EE401AA5
:10420000F5EEC00AF1EE10FA02DDB0EE602A01E030
:10421000B1EE602AF4EEC21AF1EE10FA01D3B0EE5C
:10422000600AB5EEC00AF1EE10FA02DDF0EE400AC7
:1042300001E0F1EE400AB5EEC01AF1EE10FA02DD2F
:10424000F0EE411A01E0F1EE411AF4EEE10AF1EE6E
:1042500010FA01D3B0EE410A80ED030AD0ED060A50
:1042600030EE801A80ED061AD0ED0A0AF5EEC00A8B
:10427000F1EE10FA08D0F4EEC10AF1EE10FA01D313
:10428000F0EE410AC0ED060AD0ED000A90ED011AE9
:10429000D0ED061A60EE800A41EE210A90ED041A74
:1042A000D0ED021A31EE401A41EE810AC0ED090A42
:1042B00090ED0B1AF4EEC10AF1EE10FA02DDF0EE09
:1042C000601A01E0F0EE411A90ED0C2AF4EEC21AE9
:1042D000F1EE10FA07D2F4EEC10AF1EE10FA04DCA6
:1042E000F0EE410A01E0F0EE420AC0ED090A80ED6D
:1042F000040A70470000B4432DED0C8B9FEDFEAA1D
:104300004FF07E5B9FEDFD9B41F2873642F20E78C7
:1043100041F63F799FEDFBBADFEDFBAAFB49002098
:10432000C1F8A8025D46FA4C02E0FAA001F028F9B3
:10433000D4ED040A30EECA0AB5EEC00AF1EE10FA66
:1043400001DC3AEE600A10EE100AA842EDDCF74DEF
:10435000474600BFB5F90200B8468119414507D864
:10436000F3A001F00DF9F5E7FAA001F009F901E079
:1043700043F67E67B5F9221001EB0900B842F3D984
:104380004FF4FA70FEF718F8FB480121C0F8B81294
:104390004FF4FA70FEF710F84FF4FA70FEF70CF8CD
:1043A000F64900200860F6490860F349C1F8B802F0
:1043B0009FEDF40AF448DFF8D4A3F54980ED000A34
:1043C0009AED000AF34881ED000A9AED010A80EDAA
:1043D000000A9FEDF1CBB0EE498AF0EE698A9FEDBD
:1043E000F0DB02E0F0A001F0CBF82069FCF7CCF89C
:1043F00053EC182BFCF7C2F853EC1C2BFCF7D8F845
:1044000020690AD2FCF7C0F8B0EE481AF0EE681A3C
:1044100053EC112BFCF7B2F809E0FCF7B5F8B0EE5D
:10442000481AF0EE681A53EC112BFCF7AAF853EC7B
:104430001D2BFCF7BDF80CD2D4E700BF10EE900A9C
:10444000FCF7A2F841EC100BDEA053EC102B01F0AE
:1044500097F8D4ED000A9AED001A30EEC10AB5EED5
:10446000C00AF1EE10FA01DC31EE600ADE4910EE0E
:10447000102A8A42E2DC0AE010EE900AFCF784F887
:1044800041EC100BD9A053EC102B01F079F8D4EDCE
:10449000010A9AED011A30EEC10AB5EEC00AF1EE3A
:1044A00010FA01DC31EE600ACF4910EE100A8842A2
:1044B000E2DCDFF85CA30120CAF89C02D548016861
:1044C000D54801604FF4FA70FDF776FF4FF4FA70AB
:1044D000FDF772FF0020CAF89C024FF4FA70FDF756
:1044E0006BFF4FF4FA70FDF767FFCA480168CB48CD
:1044F0000144C94801604FF4FA70FDF75DFF4FF4C5
:10450000FA70FDF759FF9C480121C0F8B4124FF42E
:10451000FA70FDF751FF4FF4FA70FDF74DFF4FF4BD
:10452000FA70FDF749FF0121CAF89C124FF4FA70A6
:10453000FDF742FF90490020C1F8B402CAF89C027E
:10454000924841F288310830DFF8D4A290ED000A99
:104550008F4880ED000A8948016089484FF4FA517C
:1045600001600AE010EE900AFCF70EF841EC100B27
:10457000ACA053EC102B01F003F88448D4ED000AF2
:10458000083090ED001A30EEC10AB5EEC00AF1EE27
:1045900010FA01DC31EE600A10EE100A5045E1DC41
:1045A00002E063A000F0ECFFB5F90200811941457B
:1045B000F7D94D465D48B0F922002844B84203D8E7
:1045C00064A000F0DDFFF5E74FF4FA773846FDF719
:1045D000F3FE694D0120C5F8B802384605F52E7581
:1045E000FDF7EAFE3846FDF7E7FE64490020086063
:1045F0006349086028606748934DC0ED00AA0AE04F
:1046000010EE100AFBF7C0FF41EC100B8FA053EC2B
:10461000102B00F0B5FFD4ED010A30EE8B0AB5EE99
:10462000C00AF1EE10FA02DDF0EE400A01E07AEE87
:10463000E00A10EE900AA842E2DC544D54481035CE
:10464000574695ED000A80ED000A0AE010EE900A48
:10465000FBF79AFF41EC100B72A053EC102B00F00B
:104660008FFFD4ED000A95ED001A30EEC10AB5EEC9
:10467000C00AF1EE10FA01DC31EE600A10EE100A09
:10468000B842E3DC434895ED010A80ED000A0AE0F8
:1046900010EE100AFBF778FF41EC100B6BA053EC07
:1046A000102B00F06DFF94ED011AD5ED010A31EEEB
:1046B000600AB5EEC00AF1EE10FA02DDF0EE400A33
:1046C00001E070EEC10A10EE900AB842E0DC504CF6
:1046D0004FF0010AC4F89CA24E4F4F4804F52774CE
:1046E000396801604FF4FA70FDF766FE4FF4FA7016
:1046F000FDF762FE0025BBE00080A8430AD7A37047
:104700003D0A054000009643000096C300804242E7
:10471000B009002054686520616E676C6520696E81
:104720002070726F67726573730D0A00D0080020E5
:10473000546865206C61756E63685F4578703120E0
:10474000697320616363656C65726174696E670D7E
:104750000A000000546865206C61756E63685F45EF
:1047600078703220697320616363656C657261746F
:10477000696E670D0A0000000000424250000020F0
:1047800054000020EC512840480000201C0000206C
:104790004000002044000020000000000000000055
:1047A000000000000000004054686520616E676CE6
:1047B0006520696E2070726F67726573732E200DAD
:1047C0000A00000054686520706F735F7820696E7E
:1047D0002070726F67726573732E20706F735F78CD
:1047E0003D252E32660D0A000000484254686520BF
:1047F000706F735F7920696E2070726F6772657376
:10480000732E20706F735F793D252E32660D0A007E
:1048100000004342580000204C000020E05EF8FFFA
:104820000000C84254686520706F735F7820696E1D
:104830002070726F67726573732E20706F735F786C
:104840003D252E32660D09000000FA4354686520AC
:10485000706F735F7920696E2070726F6772657315
:10486000732E20706F735F793D252E32660D09001F
:1048700025604FF4FA70FDF79FFD4FF4FA70FDF7D5
:104880009BFD1C48396801441B4801604FF4FA70D5
:10489000FDF792FD4FF4FA70FDF78EFD174FC7F844
:1048A000B4A24FF4FA7007F52D77FDF785FD4FF4AC
:1048B000FA70FDF781FD4FF4FA70FDF77DFDC4F845
:1048C00000A04FF4FA70FDF777FD3D6025600D48BC
:1048D0009FED0B0A80ED000A0B4880ED000A0B48A3
:1048E00080ED000A012001F069FB0948406802F0F0
:1048F00083FA13E5E05EF8FF4C000020000042421E
:10490000000000004800002040000020440000207B
:104910000800002070B5134C134D0123618A228AD0
:104920004FF47A7608B12B7001E0287890B1B2424A
:1049300001D2B14212D30A20FDF73EFD00202870BB
:10494000208AB04201D3012070BD608AB04206D3F4
:10495000022070BDB24202D2B14200D22B700020C0
:1049600070BD00005A090020980000201CB51048B6
:1049700008239A0141788DF8001001788DF8011014
:10498000C1788DF8021081788DF8031041798DF887
:10499000041001798DF80510C1798DF80610807921
:1049A0008DF8070069460348FCF7E7FA1CBD0000D4
:1049B00090000020040200201FB51F4808239A0120
:1049C00041788DF8001001788DF80110C1788DF8CC
:1049D000021081788DF8031041798DF80410017967
:1049E0008DF80510C1798DF8061081798DF80710C2
:1049F000417A8DF80810017A8DF80910C17A8DF886
:104A00000A10817A8DF80B10417B8DF80C10017B18
:104A10008DF80D10C17B8DF80E10807B8DF80F0086
:104A200069460648FCF7A9FA082340F2FF1202A9DA
:104A30000248FCF7A2FA1FBD100900202C0200203A
:104A40002DE9F05FFB4DFC48DFF8F493A0F19C0AE0
:104A50002DED028BA0F1680795ED040AA0F1340852
:104A6000A0F50F74B8EEC00A4FF4FA7B80ED070A88
:104A700095ED030AF1488AED070A95ED010A87EDE5
:104A8000070A95ED020A88ED070A95ED050AF8EE8A
:104A9000C00AC4ED070AF8EEC00AC4ED140AF8EE25
:104AA000C00AB8EEC00AC4ED210A84ED2E0A95EDC5
:104AB000060AF8EEC00AC4ED3B0AF8EEC00AC4EDDF
:104AC000480AF8EEC00AB8EEC00AC4ED550A84EDF3
:104AD000620A90ED040A8AED080AB9F808109FED01
:104AE000D98A0026594529D22E7090ED000A87ED0B
:104AF000080A90ED010A504688ED080AFFF766FBA8
:104B0000B0EE480A3846FFF7DBFAB0EE480A4046F6
:104B1000FFF7D6FACC489AED090A80ED000A97ED26
:104B2000090ACA48B1EE400A80ED000A98ED090A68
:104B3000C748B1EE400A80ED000A34E001272F702B
:104B4000FFF742F8B9F80A105A469142E969484617
:104B500001D3C04B19442961438ABF49934202D211
:104B6000C1F89C6201E0C1F89C72038ABB49934280
:104B700002D2C1F8B46201E0C1F8B472B9F80C0015
:104B8000584504D26E61AE61C1F8B8620BE0B0F571
:104B9000AF6F02D9C1F8B87205E041F288306861A0
:104BA0004FF4FA50A861AE4A9AED080AA2F1340116
:104BB000A1F13400FEF79EFFA94DB9F80E00843D27
:104BC000584517D201F0E4FE85ED078A85ED148A79
:104BD00085ED218A84ED078A84ED148A84ED218A8B
:104BE00084ED2E8A84ED3B8A84ED488A84ED558AD3
:104BF00084ED628A9B48904EB0F9021000EE101AC4
:104C0000B8EEC00A85ED080AB0F90A1000EE101AD5
:104C1000B8EEC00A85ED150AB0F9120000EE100AD0
:104C20009148B8EEC00A85ED220A90ED000A8F483F
:104C3000B8EEC00A86ED080AB0F9021000EE101AAC
:104C4000B8EEC00A84ED080AB0F90A1000EE101A96
:104C5000B8EEC00A84ED150AB0F9121000EE101A71
:104C6000B8EEC00A84ED220AB0F91A1000EE101A4C
:104C7000B8EEC00A84ED2F0AB0F9221000EE101A27
:104C8000B8EEC00A84ED3C0AB0F92A1000EE101A02
:104C9000B8EEC00A84ED490AB0F9321000EE101ADD
:104CA000B8EEC00A84ED560AB0F93A0000EE100AD8
:104CB000B8EEC00A84ED630A9FED6D0A3046FFF737
:104CC000FFF9A6F53670FFF7B3F9A6F52970FFF7DF
:104CD000AFF9A6F51C70FFF7ABF9A6F50F70FFF75B
:104CE000A7F9A6F50270FFF7A3F9A6F5EA70FFF79A
:104CF0009FF9A6F5D070FFF79BF9A6F5B670FFF700
:104D000097F9A6F59C70FFF793F9A6F58270FFF767
:104D10008FF9A6F1D000FFF78BF9D5ED090AB6EEB1
:104D2000000A544870EE800A0288FDEEE00A10EE98
:104D3000901A11440180D5ED160A428870EE800A5F
:104D4000FDEEE00A10EE901A11444180D5ED230AE1
:104D5000828870EE800AFDEEE00A10EE901A11448F
:104D60008180D6ED090AFDEEE00A10EE901AC180AE
:104D7000D4ED090A404870EE800A0288FDEEE00A90
:104D800010EE901A11440180D4ED160A428870EE9C
:104D9000800AFDEEE00A10EE901A11444180D4ED35
:104DA000230A828870EE800AFDEEE00A10EE901A67
:104DB00011448180D4ED300AC28870EE800AFDEE85
:104DC000E00A10EE901A1144C180D4ED3D0A028928
:104DD00070EE800AFDEEE00A10EE901A1144018197
:104DE000D4ED4A0A428970EE800AFDEEE00A10EE28
:104DF000901A11444181D4ED570A828970EE800ADD
:104E0000FDEEE00A10EE901A11448181D4ED640A9F
:104E1000C28930EE800ABDEEC00A10EE101A1144AD
:104E2000C181FFF7A3FDBDEC028BBDE8F05FFFF78A
:104E3000C3BD00003C00002090080020B009002005
:104E40005A09002000000000B0000020B40000203B
:104E5000B8000020E05EF8FF00004342000042423C
:104E60003C060020200900208C000020D0080020F3
:104E70000000C842900000201009002010B54FF03B
:104E8000E020006902F086FB012803D0BDE8104055
:104E900002F0B4B810BD000030B593B030216846C0
:104EA000FBF7C0FA14210CA8FBF7BCFA1C4800253C
:104EB000016841F080510160006800F0805011905D
:104EC0001848016841F4804101600068022400F440
:104ED0008040119001200090000401908001CDE9F4
:104EE000064008AA0420542182E813000B9068466B
:104EF000FDF73AFD08B172B6FEE70CA90F2081E874
:104F000031004FF48050CDE90F0502210CA8FDF7C8
:104F100021FC002801D072B6FEE713B030BD0000BE
:104F200040380240007000400248016841F47001BE
:104F30000160704788ED00E00148FDF7C8BF000040
:104F4000540200200148FDF7C2BF00007005002098
:104F5000F0B50268254C264D264E274F274B4FF0C3
:104F6000804CA04209D0604507D0A84205D0B0428D
:104F700003D0B84201D0984204D122F0700E4A68A2
:104F800042EA0E02A0421BD0604519D0A84217D0B9
:104F9000B04215D0B84213D0984211D0184DA84253
:104FA0000ED0184DA8420BD0174DA84208D0174D6F
:104FB000A84205D0164DA84202D0164DA84203D1F2
:104FC00022F44075CA682A434D6922F080022A43C0
:104FD00002608A68C2620A688262A04201D0984276
:104FE00001D10969016301214161F0BD0000014067
:104FF0000004004000080040000C00400004014094
:1050000000400140004401400048014000180040B9
:10501000001C00400020004010B5846842EA0322D2
:1050200024F47F440A432243826010BD826822F048
:1050300070020A4342F007018160704710B5036AAD
:10504000046A24F001040462846924F0F00444EA50
:10505000021423F00A020A438461026210BD10B5F3
:10506000036A23F0100303628369046A23F4704324
:1050700043EA023224F0A00343EA01118261016293
:1050800010BD000010B50548FDF7F2FFBDE8104067
:10509000034A04490148FCF7CFB800009C020020F5
:1050A000C80100200000002010B5806B0021C185E0
:1050B000C184FDF7DBFF10BD70B5846B20684069CB
:1050C00094F83D10C0F3C0100025212904D118B177
:1050D000E584204600F08AF82068406994F83E1084
:1050E000C0F38010222904D118B1E585204600F0D4
:1050F00056F8206C40F0100020642046FDF7B6FF03
:1051000070BD10B50146806B09680968C9052FD4C8
:105110000021C18501680C3151E8002F22F4807212
:1051200041E80023002BF5D10168143151E8002F2C
:1051300022F0010241E80023002BF5D1016814316F
:1051400051E8002F22F0400241E80023002BF5D166
:10515000202180F83E10016B012909D101680C3132
:1051600051E8002F22F0100241E80023002BF5D176
:10517000016B012902D0FEF758FA10BD818DFDF7B1
:1051800074FF10BD10B5806B016B012902D0FEF7D2
:105190004DFA10BD818D4908FDF767FF10BD01680C
:1051A0000C3151E8002F22F4907241E80023002BCB
:1051B000F5D10168143151E8002F22F0010241E8D5
:1051C0000023002BF5D1016B012909D101680C31B5
:1051D00051E8002F22F0100241E80023002BF5D106
:1051E000202180F83E1000210163704701680C31D6
:1051F00051E8002F22F0C00241E80023002BF5D136
:10520000202180F83D10704708B590F83E10222903
:1052100001D0022008BD82684FF480539A4201D128
:10522000016921B1816A9A421BD04AB10AE0026841
:10523000816A5268C2F308020A80816A891C08E008
:10524000026972B10268526802F07F020A70816AD4
:10525000491C8162C18D491E0904090CC18503D016
:1052600019E002685268F1E70168CA6822F020027A
:10527000CA600168CA6822F48072CA6001684A691B
:1052800022F001024A61202180F83E10016B0129C1
:1052900003D0FEF7CAF9002008BD002101630168B0
:1052A0000C3151E8002F22F0100241E80023002BBE
:1052B000F5D101680A68D20602D50A6849680091EA
:1052C000818DFDF7D2FEE6E770B5044600680169FE
:1052D000E26821F44051114301612169A068E2694B
:1052E00008436169114308432168CA6849F20C63A5
:1052F0009A430243CA6020684169A26921F440715F
:105300001143416131492068884202D030498842C6
:1053100002D1FDF7E9FA01E0FDF7D6FAE2690023D0
:10532000192164253226B2F5004F626828D0A0FB0F
:105330000101930F9200FBF72BF80146B0FBF5F04B
:105340006FF01802504301EB800006EB0010B0FB39
:10535000F5F000F0F002B1FBF5F002EB0012B1FB4A
:10536000F5F06FF01803584301EB800006EB0010D6
:10537000B0FBF5F000F00F0021681044886070BDAC
:10538000A0FB010192185B41FBF702F80146B0FB5C
:10539000F5F00201B1FBF5F06FF01803584301EB93
:1053A000800006EBC000B0FBF5F000F0F80002EB67
:1053B0004002B1FBF5F0584301EB800006EBC00062
:1053C000B0FBF5F000F00700D6E700000010014048
:1053D0000014014038B581628285002513460446D9
:1053E0000564222084F83E00A26B1C48D063A26BA7
:1053F0001B481064A26B1B48D064A06B0A4605656D
:105400002168A06B091DFCF79FFF206801684068B8
:10541000009084F83C50206948B120680C3050E876
:10542000001F41F4807140E80012002AF5D1206885
:10543000143050E8001F41F0010140E80012002A3A
:10544000F5D12068143050E8001F41F0400140E8D9
:105450000012002AF5D1002038BD000003510008D9
:1054600085510008B950000810B50448FDF700FE4A
:10547000BDE8104002490148FBF7EABF24030020C1
:105480008C01002010B50448FDF7F2FDBDE8104086
:1054900002490148FCF778B868030020AA010020FF
:1054A00010B50548FDF7E4FDBDE81040034A044986
:1054B0000148FBF7C1BE0000AC030020E60100205C
:1054C00004000020FEE700002DE9F041144F0446DF
:1054D0004FF48076002231463846FDF777F80025F4
:1054E0004FF4007804F08000802816D00022414656
:1054F0003846FDF76BF86006040E01223146384647
:10550000FDF764F8002231463846FDF75FF86D1C60
:10551000EDB2082DE6D3BDE8F0810122E7E70000F7
:105520000004024010B50446FEF784F87820FFF727
:10553000CBFFFEF7B1F80020FFF7C6FFFEF7ACF88F
:105540002046FFF7C1FFFEF7A7F8BDE81040FEF7C1
:105550008DB810B50446FEF76DF87820FFF7B4FF5C
:10556000FEF79AF84020FFF7AFFFFEF795F82046C8
:10557000FFF7AAFFFEF790F8BDE81040FEF776B8F7
:105580000FB4054B10B503A9044A029800F0FEF8C9
:1055900010BC5DF814FB00009D5E00087401002043
:1055A0000FB4084B10B504A902AA039800F0EEF856
:1055B000044602A9002000F06CFC204610BC5DF8F7
:1055C00014FB0000935E00080907090E002804DBA5
:1055D00000F1E02080F80014704700F00F0000F1A7
:1055E000E02080F8141D704702E008C8121F08C1AF
:1055F000002AFAD170477047002001E001C1121F54
:10560000002AFBD1704700002DE9FF5F82B0002126
:10561000DDE90430020DDDF840B0034318D044F654
:105620001050A2F2FF3242431514119801281FD0E6
:10563000A5EB0B00401C5FEA000A4FF000064E4F3E
:10564000DFF83891B046504615D5CAF1000413E092
:10565000119801244AA3012801D16FEA0B01029895
:10566000119AC0E90031C0E9024206B0BDE8F09FDE
:10567000CBF10000DFE704460021404A491842EB25
:105680000450CDE9001012E0E00707D032463B4657
:1056900040464946FBF748F88046894632463B4635
:1056A00010461946FBF740F806460F466410002CDA
:1056B000EAD1DDE90401DDE90023BAF1000F06DAE1
:1056C000FBF732F842464B46FBF72EF805E0FBF7B6
:1056D0009DF842464B46FBF799F804460E460022D9
:1056E000284BFAF765FF03D84FF0FF30014607E07B
:1056F0000022254B20463146FAF79FFEFBF7F5F8CE
:10570000102409E0002C0ADB0A220023FAF740FEED
:10571000039B30321A55641E50EA0102F2D1641C18
:10572000039AC4F111031444119A012A03D00122EF
:1057300008430DD10AE0084304D000204FF0110BBC
:10574000119072E7A3EB0B056D1E0DE05B4504DDC8
:105750004FF0000205F1010504E003DA4FF000020A
:10576000A5F10105002AECD002981199C0E9023197
:10577000C0E9004579E70000000014400000F03F58
:10578000300000000000F0430000E03F2DE9FF4F33
:1057900095B09A46884606460025EEE1252877D141
:1057A00000242746F94A0121039400E0044316F837
:1057B000013F203B01FA03F01042F7D130782A284C
:1057C00011D06FF02F033078A0F13002092A16D8DB
:1057D000039A44F0020402EB820203EB42021044FB
:1057E000761C0390EFE758F8042B0392002A03DAA3
:1057F000504244F40054039044F00204761C307884
:105800002E2816D116F8010F44F004042A280DD0D2
:105810006FF02F023078A0F13003092B09D807EB85
:10582000870302EB4303C718761CF3E758F8047BA1
:10583000761C30786C280FD006DC4C2817D06828EE
:105840000DD06A2814D104E0742810D07A280FD122
:105850000DE044F400140AE044F4801401E044F440
:1058600040147278824202D104F58014761C761CB2
:10587000307866280BD013DC582877D009DC002854
:1058800075D04528F6D04628F4D047281AD193E1A0
:1058900018E0632835D0642879D0652812D18BE1CF
:1058A000702873D008DC6728F1D069286FD06E2883
:1058B0000DD06F2806D1ACE073282CD0752874D099
:1058C000782853D05246179990476D1C54E1C4F381
:1058D0000250022809D003280DD0D8F8001004285F
:1058E0000DD00D6008F1040846E1D8F80010EA1761
:1058F000C1E90052F6E7D8F800100D80F2E70D700C
:10590000F0E718F8041B8DF8001000208DF8010056
:10591000EB46012003E058F804BB4FF0FF3061076D
:105920004FF0000102D40DE009F101018946B942AE
:105930000FDA8145F8DB1BF809100029F4D108E0E3
:1059400009F1010189468142FADB1BF8091000299F
:10595000F6D103985346A0EB090721463846179A1B
:1059600000F080FA284400EB090507E044E008E174
:105970000DE01BF8010B524617999047B9F1010948
:10598000F7D2534621463846179AF2E039E00A2109
:10599000C4F302524FF0000B0091022A06D058F8CF
:1059A000040BC117032A09D00AE023E008F107001D
:1059B00020F00702F2E80201904605E000B2C117AC
:1059C000042A01D140B2C117002906DA0A46002193
:1059D000404261EB02012D2202E0220504D52B2278
:1059E0008DF80420012203E0E20701D02022F7E72E
:1059F000914657E00A2100E010214FF0000B009182
:105A00000BE010214FF0000B44F004040827009134
:105A100003E008204FF0000B0090C4F30252022A6A
:105A200005D058F8040B0021032A08D008E008F13B
:105A3000070020F00702F2E80201904603E080B27E
:105A4000042A00D1C0B24FF0000922072AD53278CB
:105A5000702A07D0DDF800C08CF0100C5CEA0B0C4B
:105A600005D00EE040228DF80420012208E050EA23
:105A7000010306D030238DF804308DF80520022272
:105A80009146009B83F0080353EA0B030AD150EAC6
:105A9000010201D1620705D530228DF804204FF0B4
:105AA00001097F1E3278582A04D039A20C920CAA20
:105AB00002920BE03BA2F9E75B46009AFAF768FC1A
:105AC0000C9B9B5C029A521E0292137050EA0102D8
:105AD000F2D1029804A9081A00F1200B600702D540
