:020000040800F2
:10000000980A0020A1010008092E00080526000812
:10001000912D000889030008E53800080000000061
:10002000000000000000000000000000932F000806
:100030006D04000800000000912F0008B93000088E
:10004000BB010008BB010008BB010008BB010008A0
:10005000BB010008BB010008BB010008BB01000890
:10006000BB010008BB010008BB010008BB01000880
:100070008D03000899030008A5030008B1030008D8
:10008000BB010008BB010008BB010008BB01000860
:10009000BB010008BB010008BB010008BB01000850
:1000A0005D310008BB010008BB010008BB0100086E
:1000B000BB010008BB010008BB010008BB01000830
:1000C000BB010008BB010008BB010008BB01000820
:1000D000BB010008BB010008BB010008BD380008D7
:1000E000BB010008BB010008BB010008BB01000800
:1000F000BB010008BB010008BB010008BB010008F0
:10010000BB010008BB010008BB010008BB010008DF
:100110004D34000869340008BB010008BB01000829
:10012000BB010008BB010008BB010008BB010008BF
:10013000BB010008BB010008BB010008BB010008AF
:10014000BB010008BB010008BB010008BB0100089F
:10015000BB010008BB010008BD030008D938000836
:10016000BB010008BB010008BB010008BB0100087F
:10017000BB010008BB010008BB0100080000000033
:10018000BB010008BB010008DFF810D000F08EF8BA
:10019000004800476D390008AFF30080980A00203E
:1001A0000648804706480047FEE7FEE7FEE7FEE711
:1001B000FEE7FEE7FEE7FEE7FEE7FEE74D3100085B
:1001C000890100082DE9F05F0546002092469B4614
:1001D00088460646814640241BE02846414647465D
:1001E000224600F053F853465A46C01A914110D3A4
:1001F00011461846224600F03AF82D1A67EB01081E
:100200004F4622460120002100F031F817EB00098B
:100210004E41201EA4F10104DFDC484631462A4647
:100220004346BDE8F09F40EA01039B0703D009E085
:1002300008C9121F08C0042AFAD203E011F8013BD2
:1002400000F8013B521EF9D27047D2B201E000F82B
:10025000012B491EFBD270470022F6E710B513466A
:100260000A4604461946FFF7F0FF204610BD202A33
:1002700004DB203A00FA02F1002070479140C2F1FD
:10028000200320FA03F3194390407047202A04DB2F
:10029000203A21FA02F00021704721FA02F3D040FF
:1002A000C2F120029140084319467047064C074DA1
:1002B00006E0E06840F0010394E807009847103436
:1002C000AC42F6D3FFF764FF6C3B00088C3B0008A0
:1002D00010B51F48F3EE041A2DED068BDFED1D8AD5
:1002E0009FED1D9A9FED1D8ADFED1D9A9FED1DAAC2
:1002F000F0EE682AB0EE492AB0EE481AF0EE690A2C
:10030000B0EE4A0A02F082FD1148F0EE682A34305D
:10031000B0EE492AF3EE041AB0EE481AF0EE690A7C
:10032000B0EE4A0A02F072FDF0EE682AB0EE492AF9
:10033000B0EE481AF0EE480ABDEC068BF2EE041A55
:10034000B1EE040A0248BDE81040683002F05EBD1C
:10035000F005002000409C4500409CC500000000C6
:100360006F12033B0000704205480068C16841F00D
:100370001001C16015220349014802F065B8000070
:100380002403002070000020FEE70000014800F078
:10039000EFBA0000CC040020014800F0E9BA0000E8
:1003A000AC030020014800F0E3BA00002C05002057
:1003B000014800F0DDBA00000C040020014800F004
:1003C000D7BA00006C04002001681823CAB2103AA2
:1003D000B2FBF3F2054B6FF30901032A9B5CC36583
:1003E00000D9091D81650846704700004C3B000894
:1003F00010B5014600208B698A6A4FF0C07453B172
:10040000B3F5005F15D072B1012A0CD0022A0AD0D0
:10041000032A09D104E01AB1012A06D0022A03D125
:10042000C96AC90100D5012010BDC96AA142FAD02C
:1004300010BD002AF7D0012AF2D0022AF3D0032AF5
:10044000F3D010BD30B50468256825F480252560FB
:10045000046863608368402B036803D09960006878
:10046000C26030BD9A600068C16030BD704772B62E
:10047000FEE700002DE9F34F85B00598006801689C
:10048000C943C9067ED401684068009015225748C8
:100490000699FFF7C8FE15210698FFF7DDFE5348C1
:1004A00090F801C08178C2780CEB0103017989468C
:1004B00011440B4441795C1883799A461C44C379F2
:1004C0009E461C44037A9B461C44437A04931C4476
:1004D000837A03931C44C37A02931C44037B0193E5
:1004E0001C44437B00931C44837BC67B1C44057CDB
:1004F00034446719447CBCF1010F07EB0408877C86
:1005000008EB0700DFF8E880C0B288F8000061D18E
:10051000DFF8D8C09CF80080B8F1A50F5AD19CF83C
:100520001480B8F15A0F55D19CF81380DFF8C0C081
:1005300080454FD14FF000080CF110008CF800807E
:10054000027080F801908170A0F10C0180F803A086
:1005500081F800E081F801B0049A8A70039ACA70A9
:100560000A1DDDF808C082F800C0DDF804C082F87A
:1005700001C0DDF800C082F802C0D370031F1E70F6
:100580005D7000E02EE09C70DF7091ED000A19496B
:10059000194C81ED000A92ED000A152281ED010A45
:1005A00093ED000A81ED020A006820600F4905986A
:1005B00001F0E0FF15220D49059801F0DBFF15223F
:1005C0000A49059801F0D6FF08488078012801D132
:1005D000C4F80080DDE9050107B01522BDE8F04F41
:1005E00001F032BF07B0BDE8F08F0000D805002051
:1005F00014000020580600204800002030B50E4CA2
:100600002568A5F5FE45FF3D056047F6FF702060B3
:100610000A4D2C68241A64420C6028602C07616A19
:10062000091A494211606062054A1168091A494273
:100630001960106030BD0000240800402404004010
:10064000240C00402DE9F843044600688846016800
:10065000C943C9067DD40168002540680090212265
:1006600041468B48FFF7DFFD21214046FFF7F4FDAF
:100670008749087855286CD1C87A552869D1887D72
:10068000552866D14878512863D1087B522860D11B
:10069000C87D53285DD18878CA7810440A79A6307D
:1006A00010444A7910448A791044CA7910440A7A6D
:1006B00010444A7A1044C2B2764802704B7B8E7B5B
:1006C0003344CE7BA73333440E7C33444E7C3344D7
:1006D0008E7C3344CE7C33440E7D3344DEB2467090
:1006E0000B7E4F7E3B448F7EA8333B44CF7E3B4402
:1006F0000F7F3B444F7F3B448F7F3B44CF7F3B4446
:10070000DBB283708F7A974223D14A7DB24220D1E7
:1007100091F820209A421CD105700022427082700C
:10072000488800EE100AF8EE400A9FED5B0A20EEC2
:10073000801AF3EE000A61EE201A9FED581A01F1BB
:10074000240061EE811AC0ED001A8A8801EE902A19
:1007500000E09BE0F8EE611A61EE801A61EEA01AEB
:1007600061EE811AC0ED011ACA8801EE902AF8EEF6
:10077000611A61EE801A61EEA00A60EE810AC0ED96
:10078000020A0A89DFED462A9FED463AB1F80D309C
:1007900000EE903AF8EE600A60EE800ADFED421A51
:1007A00020EEA11A80ED031AB1F80F3000EE903A56
:1007B000F8EE600A60EE800A60EEA10AC0ED040A5D
:1007C000B1F8133002EE103A384BB8EE422A22EE5E
:1007D000002A62EE211A02EE102A11EE102AC0ED54
:1007E000051AB8EE422A9A42C2EE223A33EE832A22
:1007F00080ED092A9FED2E2A03DD31EE421A80EDAD
:10080000031A10EE902A9A4203DD70EEC20AC0ED80
:10081000040A11EE902A9A4203DD71EEC20AC0ED7D
:10082000050A0A8B00EE902AF8EE600A20EE801A84
:10083000DFED200A21EE201A80ED061A4A8B01EE28
:10084000102AB8EE411A21EE001A21EE201A80ED8E
:10085000071A8A8B01EE102A2122B8EE411A21EEE6
:10086000000A20EE200A80ED080AC98B00EE101A5B
:100870004146B8EE400AC0EE220A30EE830A80ED0F
:10088000090A2046BDE8F84301F0DEBDBDE8F88363
:100890008C0500201000002000000038CDCC1C4149
:1008A0000000AA43B81E12420000FA440000FA44B5
:1008B00000007A45000034432DE9F0410446876D7D
:1008C00000F0DCFA064694F835000025022806D030
:1008D0008020606584F834500120BDE8F0812068F4
:1008E000016821F0160101602068416921F0800152
:1008F0004161206C08B9A06C20B12068016821F02A
:10090000080101602068016821F0010101600CE02C
:1009100000F0B4FA801B052807D920206065032069
:1009200084F8350084F83450D7E720680068C007A1
:10093000EED194F85C103F208840B860012084F824
:10094000350084F834500020C7E790F835100229AC
:1009500003D08021416501207047052180F83510C2
:100960000068016821F0010101600020704700006B
:100970002DE9F84304464FF00009CDF80090634894
:100980004FF41651A56D0068B0FBF1F72E6894F88E
:100990005C10082000FA01F131420FD021680A688A
:1009A00052070BD50A6822F004020A6094F85C1022
:1009B0008840A860606D40F00100606594F85C10AC
:1009C0004FF0010808FA01F0304208D02168496967
:1009D000090604D5A860606D40F00200606594F8D7
:1009E0005C1004208840304208D0216809688907DB
:1009F00004D5A860606D40F00400606594F85C1058
:100A000010208840304218D021680968090714D5A1
:100A1000A86020680168490304D50068000308D570
:100A2000A16C07E00168C90503D4016821F0080141
:100A30000160216C09B12046884794F85C102020A1
:100A40008840304231D021680968C9062DD5A86098
:100A500094F8350005282068016806D0490347D579
:100A6000006800031DD4616C1CE021F016010160D8
:100A70002068416921F080014161206C08B9A06CB7
:100A800020B12068016821F00801016094F85C1031
:100A90003F208840A86084F8358084F83490216D28
:100AA0001FE0E16B09B120468847606D00282BD01C
:100AB000606DC00714D0052084F8350020680168F7
:100AC00021F0010101600098401C0090B84203D859
:100AD00020680068C007F6D184F8358084F8349027
:100AE000E16C002910D001B02046BDE8F043084772
:100AF0000168C905D5D4016821F01001016084F8AE
:100B0000358084F83490CCE7BDE8F8830C000020F1
:100B10002DE9F041044600F0B1F906465CB102202F
:100B200084F83500002584F834502068016821F0ED
:100B3000010101600DE00120BDE8F08100F09EF9A7
:100B4000801B052805D920206065032084F8350026
:100B5000F2E720680068C007F0D1226811682048D9
:100B60000140D4E901031843D4E903363343184361
:100B700063691843A3691843E3691843236A184358
:100B80000843616A042903D1D4E90B1319430843CC
:100B9000106020684069666A20F0070130460E4305
:100BA000012704280CD1A06A0643E06A40B1204620
:100BB000FFF71EFC20B14020606584F83570BAE76D
:100BC000206846612046FFF7FFFB94F85C203F2138
:100BD00091408160656584F835700020ACE70000C5
:100BE0003F8010F02DE9F0410446866D90F8340006
:100BF000002501280DD0012084F8340094F83570C8
:100C00000020012F07D084F8340002252846BDE8D3
:100C1000F0810220FBE7022784F8357060652046EA
:100C2000FFF710FC94F85C103F208840B06020680B
:100C3000016841F016010160206C20B12068016854
:100C400041F0080101602068016841F00101016084
:100C5000DCE7000070B5044600F010F90546601CA2
:100C600002D004480078044400F008F9401BA04278
:100C7000FAD370BD000000202DE9F84FDFF8BCA1C9
:100C80000022012503264FF00F090AF1040BAAF1F7
:100C9000040E00BF0B6805FA02F42340A34270D192
:100CA0000F7907F00307012F01D0022F16D18768B3
:100CB0004FEA420806FA08FC27EA0C07D1F80CC0F4
:100CC0000CFA08FC4CEA070CC0F808C04768A743B8
:100CD0000C79C4F3001494403C4344600C79E44321
:100CE000A4070AD0C4684FEA420C06FA0CF7BC43CA
:100CF0008F6807FA0CF72743C7600C7904F00304E8
:100D0000022C12D1D40800EB840CDCF820405707E9
:100D1000FF0E09FA07F824EA0804D1F8108008FA4F
:100D200007F848EA0408CCF8208004684FEA420C2F
:100D300006FA0CF7BC430F7907F0030707FA0CF724
:100D4000274307604C6814F4403F70D03C4C276840
:100D500047F480472760246822F0030704F48044A6
:100D60000094384C07EB040CDCF8084897074FEA6E
:100D7000177809FA08F7BC43334FB84202D100276D
:100D800024E054E0314FB84201D101271EE0304F3A
:100D9000B84201D1022719E02E4FB84201D10327F2
:100DA00014E02D4FB84201D104270FE02B4FB84279
:100DB00001D105270AE02A4FB84201D1062705E0F4
:100DC000284FB84201D1072700E0082707FA08F7A3
:100DD0002743CCF80878DAF800405746D1F804C029
:100DE0009C435FEACC2C00D51C433C60DBF8004000
:100DF0005F46D1F804C09C435FEA8C2C00D51C43AD
:100E00003C60DEF800407746D1F804C09C435FEABE
:100E10008C3C00D51C433C60084F083F3C68D1F82F
:100E200004C09C435FEACC3C00D51C433C60521C90
:100E3000102AFFF42FAFBDE8F88F0000083C0140F6
:100E400044380240003001400000024000040240EB
:100E500000080240000C0240001002400014024052
:100E600000180240001C02400069084000D0012028
:100E700070470AB1816170470904FBE70148806847
:100E80007047000000000020024881680278114489
:100E900081607047000000200B4810B5016841F4E4
:100EA00000710160016841F480610160016841F4F2
:100EB00080710160032000F06FF80F2000F006F849
:100EC00000F024F8002010BD003C024070B50D4D2C
:100ED00004464FF47A712878B1FBF0F00A490968AA
:100EE000B1FBF0F000F00AFB48B9102C07D2002249
:100EF0002146501E00F030F800206C6070BD0120CB
:100F000070BD0000000000200C0000200A4808B559
:100F1000016841F480410160006800F48040009065
:100F20000548001F016841F080510160006800F031
:100F30008050009008BD000044380240002809DBC2
:100F400000F01F02012191404009800000F1E020E3
:100F5000C0F8001170470000F0B40E4B1B680C463F
:100F6000C3F30223C3F10705042D00D90425191D7D
:100F7000072901D2002300E0DB1E012606FA05F155
:100F8000491E214099409E40761E16403143F0BCD8
:100F900002F0B2BC0CED00E0064900F00702086860
:100FA0004FF6FF03184040EA0220034A104308604E
:100FB000704700000CED00E00000FA052DE9F04755
:100FC0000E46050065D0DFF81481D8F80000F7B2AE
:100FD00000F00700B04207D288F80070D8F800008F
:100FE00000F00700B04254D128683D4C810712D56B
:100FF000400703D5206840F4E050206028780007BF
:1010000003D5206840F4604020602068A96820F083
:10101000F000084320602878C0072DD03049686868
:101020000839012812D0022813D0032811D00968EA
:10103000890700292DDA216821F00301014321608D
:10104000FFF71CFF814641F2883A0EE009688903E8
:10105000EFE709688901ECE7FFF710FFA0EB090152
:10106000514502D90320BDE8F0872068696800F087
:101070000C00B0EB810FEFD1D8F80010404601F022
:101080000701B14207D90770006800F00700B042BD
:1010900001D00120E7E72878400705D52068E968F6
:1010A00020F4E050084320602878000706D5206827
:1010B000296920F4604040EAC100206000F038F85F
:1010C0002168084AC1F30311515CC8400649086011
:1010D00006480068FFF7FAFE0020C4E7003C024023
:1010E00008380240543B00080C0000200400002097
:1010F0000448054900680968044AC1F38221515C2B
:10110000C84070470C00002008380240643B0008CB
:101110000448054900680968044AC1F34231515C3A
:10112000C84070470C00002008380240643B0008AB
:10113000154810B5006810F00C02144813D0411087
:10114000042A0FD0082A0ED10F4C241F22682368CE
:1011500002F03F025B0207D52068C0F38810A0FBB5
:10116000010106E0084610BD2168C1F38811A1FB0A
:1011700000010023FFF726F82168C1F30141491C53
:101180004900B0FBF1F010BD083802400024F40023
:101190002DE9F84F04006ED02078DFF84C93C0079B
:1011A000A9F104054AD009F104000168C1F38101E5
:1011B000012908D00068C0F3810002280AD1D9F8BB
:1011C0000000400206D52868800337D560680028F3
:1011D000E1D033E06068B0F5803F10D0B0F5A02FCB
:1011E000286810D020F480302860286820F48020FF
:1011F00028606068A8B1FFF741FE06460DE0286848
:1012000040F48030F4E740F480202860F7E700BF26
:10121000FFF734FE801B642873D828688003F7D555
:101220000CE0FFF72BFE064605E000BFFFF726FEA9
:10123000801B6428F0D828688003F7D42078DFF872
:10124000AC8280074FF0000A3ED5A748001D016818
:1012500011F00C0F08D00068C0F3810002280BD1F8
:10126000D9F80000400207D42868800716D5E06846
:10127000012800D112E033E1E068B8B10120C8F8DC
:101280000000FFF7FBFD064605E000BFFFF7F6FD97
:10129000801B0228C0D828688007F7D528682169F4
:1012A00020F0F80040EAC10028600DE0C8F800A076
:1012B000FFF7E4FD064604E0FFF7E0FD801B02288F
:1012C0001FD828688007F7D42078000722D5864FDA
:1012D00087486169703771B101210160FFF7CEFD68
:1012E000064604E0FFF7CAFD801B022809D83868CB
:1012F0008007F7D50EE0C0F800A0FFF7BFFD064657
:1013000005E082E0FFF7BAFD801B02287DD838682F
:101310008007F7D42078400768D5DFF8CCB10027E4
:101320000BF13C0BDBF80000C0000BD4DBF8001025
:1013300041F08051CBF80010DBF80000012700F0ED
:10134000805000906B4E3068C00510D4306840F477
:1013500080703060FFF792FD009005E0FFF78EFD92
:101360000099401A022850D83068C005F6D55E4E64
:10137000A0686C3601280FD00528306810D020F006
:1013800001003060306820F004003060A068B8B11F
:10139000FFF774FD00900FE0306840F00100F4E7C3
:1013A00040F004003060F7E7FFF768FD0099411A4C
:1013B00041F28830814266D830688007F4D50EE06B
:1013C000FFF75CFD009007E0FFF758FD0099411A18
:1013D00041F28830814256D830688007F4D42FB16A
:1013E000DBF8001021F08051CBF80010A069C8B3E1
:1013F0003D49091D0968C1F3810102294AD002282B
:10140000504607D0C8F8600000E03CE0FFF736FD2A
:1014100004463BE04746C8F86000FFF72FFD06464C
:1014200005E000BFFFF72AFD801B02282BD82868A3
:101430008001F7D4D4E907010843A16A2E4A49087C
:1014400002EB0141626A41EA8211084394F82C10D0
:1014500040EA0161C9F8001001203866FFF70EFD6F
:10146000044606E03EE000BFFFF708FD001B02282F
:1014700009D828688001F7D534E000BFFFF7FEFCEB
:10148000001B022802D90320BDE8F88F28688001DC
:10149000F4D427E00128F7D0D9F80000E26900F47D
:1014A000800191421CD1226A00F03F01914217D184
:1014B00047F6C071626A0140B1EB821F10D1A26A87
:1014C0004FF0FF3300F4403103EB5202B1EB024F17
:1014D00006D194F82C1000F07060B0EB016F01D0D1
:1014E0000120D1E70020CFE7043802400000474246
:1014F000800E4742007000400000FFFF10B5401E04
:10150000B0F1807F01D3012010BD4FF0E024606175
:101510000F21601702F0F0F90020A0610720206180
:10152000002010BD7047704710B590F83C20012A8C
:1015300022D0012280F83C20CA688C6822F44072D4
:1015400022434C6822F4806222430C6822F4006239
:1015500022430C6922F4805222434C6922F4005247
:101560002243C969002322F480420A4301684A6485
:1015700080F83C30002010BD022010BD70B590F8FE
:101580003C20012A32D0012480F83C40022280F81D
:101590003D2003685A689D6822F070060A6832434D
:1015A0005A60134B02689A4214D0B2F1804F11D0A6
:1015B000104B9A420ED0104B9A420BD00F4B9A42CE
:1015C00008D00F4B9A4205D00E4B9A4202D00E4BD8
:1015D0009A4204D1496825F080031943916080F84C
:1015E0003D40002180F83C10084670BD022070BDCF
:1015F000000001400004004000080040000C0040D2
:1016000000040140004001400018004010B50400F3
:1016100003D094F83D0010B107E0012010BD002078
:1016200084F83C00204600F01FF8022084F83D00BA
:10163000211D206801F0A0FD012084F8460084F8F7
:101640003E0084F83F0084F8400084F8410084F8AC
:10165000420084F8430084F8440084F8450084F88C
:101660003D00002010BD000008B5114A0168114876
:10167000914207D1016841F001010160006800F06A
:10168000010009E00C4A914211D1016841F4803116
:101690000160006800F4803000220090114618209C
:1016A000FFF75AFCBDE808401820FFF747BC08BD0B
:1016B00000000140443802400040014090F83D10D5
:1016C000012901D001207047022180F83D100168F6
:1016D000CA6842F00102CA6000681149884214D009
:1016E000B0F1804F11D00F4988420ED00E49884288
:1016F0000BD00E49884208D00D49884205D00D49CB
:10170000884202D00C49884204D1816801F0070167
:10171000062903D0016841F00101016000207047F3
:10172000000001400004004000080040000C0040A0
:1017300000040140004001400018004070B504461C
:1017400090F83C000025012817D0012684F83C6061
:10175000022084F83D002068826822F0770222F49B
:101760007F4282600868502838D00DDC20284FD096
:1017700005DC90B3102811D14AE0022070BD30285A
:1017800046D040280AD13BE060282FD070280DD0E9
:10179000B0F5805F03D0B0F5005F12D0012584F86A
:1017A0003D60002084F83C00284670BDCB68D1E93C
:1017B0000121206801F051FD2068816841F0770126
:1017C00009E0CB68D1E90121206801F046FD2068DD
:1017D000816841F480418160E1E719E0CA684968A5
:1017E000206801F00FFE5021206806E0CA684968B1
:1017F000206801F018FE6021206801F038FDCEE776
:10180000CA684968206801F0FDFD40212068F4E7BE
:10181000226801461046F0E72DE9F0410D4604002C
:1018200003D094F83D0018B108E00120BDE8F08134
:10183000002084F83C00204600F040F8022084F8A4
:101840003D002068816844F2070291438160211DB8
:10185000206801F091FC226890689169166A2B68F3
:10186000AF69034340F20330814341EA0721A8688E
:10187000EF6908434FF6FC418843E96840EA0720D6
:10188000014328692F6A000140EA0730084369686C
:101890006D6926F0AA0646EA051529439360226879
:1018A000906154F8460B0162012004F81F09E075AD
:1018B0002076E0762077A0750020B7E770B586B077
:1018C000044614216846FEF7C7FC424923680024F9
:1018D000404A103902254048B3F1804F14D03F4EA2
:1018E000B34241D1136843F002031360126802F05F
:1018F000020205920A6842F001020A60096801F0DA
:1019000001010591C0215EE0136843F001031360FB
:10191000126802F0010205920A6842F001020A60B0
:101920000A6802F0010205920A6842F002020A60A7
:101930000968012601F0020105914FF40041009170
:10194000CDE90154CDE903466946FFF795F9082032
:101950000090CDE90154CDE903462148694600BF16
:10196000FFF78AF906B070BD1E4EB34217D110685A
:1019700040F004001060106800F004000590086852
:1019800040F0080008600868694600F0080005900B
:101990004FF440500090CDE90154134817E0134E26
:1019A000B342DFD1136843F008031360126802F0FA
:1019B000080205920A6842F001020A60096801F013
:1019C0000101059103210091CDE901546946CDE95A
:1019D0000345C5E7403802400000024000040040D3
:1019E0000004024000080040000C0240000C0040CF
:1019F00070B590F83E60044690F83F5090F8423041
:101A000090F84320022021B104290ED0012E1BD1D1
:101A100014E0012E18D1012B16D184F83E0084F871
:101A2000420001220021206820E0012D0CD1012A72
:101A30000AD184F83F0084F8430014E0012D03D15B
:101A4000012B01D1012A01D0012070BD84F83E0094
:101A500084F83F0084F8420084F84300012200210A
:101A6000206801F0EDFB01220421206801F0E8FB71
:101A70002068016841F001010160002070BD7047DD
:101A800070B50446006801694FF00005C943890735
:101A900015D4C168C943890711D4E91E0161012029
:101AA0002077206880698007204602D0FFF7E7FF93
:101AB00004E000F0C3F8204600F055F925772068CF
:101AC0000169C943490717D4C168C943490713D4F9
:101AD0006FF004010161022020772068806910F412
:101AE000407F204602D0FFF7CAFF04E000F0A6F8CE
:101AF000204600F038F9257720680169C9430907B5
:101B000016D4C168C943090712D46FF008010161F6
:101B1000042020772068C0698007204602D0FFF7A4
:101B2000AEFF04E000F08AF8204600F01CF92577AB
:101B300020680169C943C90617D4C168C943C906E9
:101B400013D46FF010010161082020772068C0696C
:101B500010F4407F204602D0FFF791FF04E000F030
:101B60006DF8204600F0FFF8257720680169C94329
:101B7000C90708D1C168C943C90704D1891E0161D9
:101B8000204600F055F920680169C943090609D4C7
:101B9000C168C943090605D46FF080010161204680
:101BA000FFF7C0FC20680169C943490609D4C16830
:101BB000C943490605D46FF040010161204600F099
:101BC00045F920680169C94389060BD4C168C94336
:101BD000890607D46FF0200101612046BDE87040FE
:101BE000FFF7A1BC70BD000010B586B004461421FB
:101BF0006846FEF731FB0E492068884216D10D4831
:101C00000021026842F010020260006800F010003B
:101C100005904FF4D44000900220CDE9010101204D
:101C2000CDE9031069460448FFF726F806B010BD59
:101C3000000001403038024000100240704770B58B
:101C4000044690F83C0000260D4601280FD00120E4
:101C500084F83C006AB1042A1DD0082A2FD00C2A2F
:101C60003FD00126002084F83C00304670BD0220A1
:101C700070BD206801F004FB2068816941F0080113
:101C800081612068816921F0040181612068816996
:101C90002A69114311E0206801F022FB2068816964
:101CA00041F4006181612068816921F48061816172
:101CB000206881692A6941EA02218161D2E72068AE
:101CC00001F044FB2068C16941F00801C16120684E
:101CD000C16921F00401C1612068C1692A69114309
:101CE00011E0206801F066FB2068C16941F40061E1
:101CF000C1612068C16921F48061C1612068C16946
:101D00002A6941EA0221C161ACE710B5040003D0A1
:101D100094F83D0010B107E0012010BD002084F8C8
:101D20003C00204600F01EF8022084F83D00211DF2
:101D3000206801F021FA012084F8460084F83E0072
:101D400084F83F0084F8400084F8410084F84200A1
:101D500084F8430084F8440084F8450084F83D008A
:101D6000002010BD7047704710B50446022249B1EB
:101D700004290ED0082913D094F84100012816D068
:101D8000012010BD94F83E000128F9D184F83E20CE
:101D90000FE094F83F000128F2D184F83F2008E0DA
:101DA00094F840000128EBD184F8402001E084F849
:101DB00041200122206801F043FA16492068164AA2
:101DC000884201D0904203D1436C43F40043436402
:101DD0002068884213D0B0F1804F10D00F4988425C
:101DE0000DD00F4988420AD00E49884207D0904250
:101DF00005D00D49884202D00C49884204D181683F
:101E000001F00701062903D0016841F001010160DA
:101E1000002010BD0000014000040140000400400B
:101E200000080040000C0040004001400018004045
:101E3000054910B5884206D101F0ACF8BDE8104064
:101E40000148FFF73BBC10BD1002002070477047EF
:101E500070470000F8B5016804460868CA684B6915
:101E600010F00F0F4FF0000559D003F0010602F4F7
:101E70009077374365D0C10705D0D10503D5216CD4
:101E800041F001012164410705D5D90703D0216C38
:101E900041F002012164810705D5D90703D0216CE7
:101EA00041F004012164010707D502F0200131430C
:101EB00003D0216C41F008012164216C00293AD043
:101EC000800604D5900602D5204601F0A9FB2068C3
:101ED0004069216CC0F38010090700D460B320462C
:101EE00001F069FB20684069400621D52068143064
:101EF00050E8001F21F0400140E80012002AF5D10F
:101F0000A06BA8B16C490165A06BFEF71EFD00280F
:101F100011D0A06B016D01B0BDE8F0400847830609
:101F20000FD593060DD52046BDE8F84001F078BBEB
:101F30002046FFF78DFFF8BD2046FFF789FF256497
:101F4000F8BD266B2023012E79D1C60677D5D6069B
:101F500075D50868486800904869400640D5A16B6F
:101F6000086840680004000CEAD0A28D8242E7D9DC
:101F7000E085C869B0F5807F2DD020680C3050E82E
:101F8000001F21F4807140E80012002AF5D120687A
:101F9000143050E8001F21F0010140E80012002A2F
:101FA000F5D12068143050E8001F21F0400140E8CE
:101FB0000012002AF5D184F83E30256320680C30E9
:101FC00050E8001F21F0100140E80012002AF5D16E
:101FD000A06BFEF771FCA08DE18D401A81B229E063
:101FE000A08DE18D401A81B2E08D0028A8D0002993
:101FF000A6D020680C3050E8002F22F4907240E800
:102000000026002EF5D12068143050E8002F22F071
:10201000010240E80026002EF5D184F83E30256309
:1020200020680C3050E8002F22F0100240E8002316
:10203000002BF5D12046FFF70AFFF8BDFFE70506A4
:102040002BD5150629D594F83D002128F5D1A06897
:10205000B0F5805F01D12069B0B1206A411C2162D6
:10206000216800784860E08C401E0004000CE08489
:10207000E3D12068C16821F08001C1602068C16897
:1020800041F04001C160D8E7206A0088C0F3080031
:102090004860206A801C2062E5E74006CDD55006E6
:1020A000CBD5CA68204622F04002CA6084F83D3091
:1020B00000F0A6FAC1E700007534000870B504000E
:1020C00004D094F83D00002510B106E0012070BD59
:1020D00084F83C50204600F023F8242084F83D008A
:1020E0002068C16821F40051C160204601F0F8FA6F
:1020F0002068016921F4904101612068416921F063
:102100002A0141612068C16841F40051C160256421
:10211000202084F83D0084F83E00002070BD0000BF
:102120002DE9F04F87B0054614216846FEF794F874
:10213000B848B849B64B10382A68DFF8DCB200243A
:102140004E0507154FF002084FF003094FF0080C39
:102150004FF0400A9A4254D10A6842F400220A60C1
:10216000096801F400210591016841F00401016052
:10217000006802AA00F0040005904FF44060CDE929
:10218000000882E8101269465846FEF775FDDFF830
:102190009082A2494046C8F80010C0E90164C0E935
:1021A0000347C8F81440C8F81840C8F81C40C8F8DD
:1021B0002040C8F82440FEF7ABFC08B1FEF757F901
:1021C000974C9648C5F8388060343030C8F838509D
:1021D00084E841040020C4E903076061A061E06174
:1021E000206260622046FEF793FC08B1FEF73FF9DB
:1021F0006C63002203213420A563FEF7ADFE34207A
:1022000036E0884B9A4238D10A6842F480120A605C
:10221000096801F480110591016841F00401016031
:10222000016801F004010591016841F008010160B5
:102230000068CDE9024900F0080005909814CDE946
:10224000000865466946CDF810C05846FEF714FDF3
:102250000420CDE90008CDE9024969460495724899
:10226000FEF70AFD002211463520FEF775FE3520E7
:10227000FEF764FE07B0BDE8F08F6C4BDFF894E129
:102280009A420EF1040E3CD1DEF8002042F010021A
:10229000CEF80020DEF8001001F010010591016871
:1022A00041F0010101600068029400F00100059016
:1022B0004FF4C060CDE900080720CDE903906946DE
:1022C0005B48FEF7D9FCDFF858815A4908F1C0088D
:1022D0004046C0E90347C8F81440C8F81840C8F899
:1022E0001C40C8F8204088E84204C8F82440FEF7A3
:1022F0000FFC08B1FEF7BBF8C5F83480C8F83850B9
:10230000B8E74D4B9A425BD10A68A34642F480225B
:102310000A60096801F480210591016841F0020119
:1023200001600068029400F0020005904FF44060E4
:10233000CDE900080720CDE9039069463F48FEF744
:102340009BFC3649DFF8F88018394046C8F8001081
:10235000C0E90164C0E90347C8F81440C8F8184050
:10236000C8F81C40C8F82040C8F82440FEF7D0FB4D
:1023700008B1FEF77CF8324C2848C5F83880603444
:102380001830C8F8385084E84104C4E903B7C4F8E9
:1023900014B0C4F818B0C4F81CB0C4F820B020467B
:1023A000C4F824B0FEF7B4FB08B1FEF760F86C6324
:1023B000002204212720A563FEF7CEFD272057E742
:1023C00020498A429CD1DEF8002042F02002CEF85B
:1023D0000020DEF8001001F020010591016841F0B5
:1023E00004010160006802AA00F004000590C0200A
:1023F000CDE9000882E8101269465846FEF73CFC19
:10240000002203214720FEF7A7FD472030E7000008
:10241000004C00404038024000080240406002404A
:10242000AC03002000500040000C024000100140AE
:1024300000000240B864024000480040000402402E
:10244000CC0400200014014090F83E30202B0ED127
:1024500059B152B190F83C30012B08D0012380F8DB
:102460003C300023036301F0C1B901207047022012
:10247000704790F83E30202B0ED159B152B190F8F0
:102480003C30012B08D0012380F83C30002303634B
:1024900001F0F6B9012070470220704730B400689F
:1024A0002C492D4A884246D110469178C37821B1F3
:1024B000082905D0092906D007E0412B36D104E0D0
:1024C0000D2B33D101E00A2B30D124484354491C51
:1024D000C9B291700A2929D1002191704178C3783D
:1024E000303901EBC10404EB011103EB8103817866
:1024F00001EB81041A4901EB4404234493600379FE
:102500008479303B03EBC30505EB031304EB830332
:10251000447904EB840401EB44011944D160C0798F
:10252000302801D0012000E0002010700A4901226B
:10253000C91C0C4808E00C49884208D11079507039
:10254000054901220948091D30BCFFF792BF30BC84
:1025500070470000001401404C0000208C06002051
:10256000F0FDFFFF68030020005000409C020020A7
:102570007047000070B5044690F83D00202836D121
:1025800091B38AB394F83C00012830D0012084F83C
:102590003C002162A284E28400252564212084F885
:1025A0003D00636B1348D863636B13481864636B17
:1025B0001248D864606B134605652668606B321D4F
:1025C000FEF710FB21686FF04000086084F83C5073
:1025D0002068143050E8001F41F0800140E80012EC
:1025E000002AF5D1002070BDFFE70120FBE70220A3
:1025F000F9E700006B350008AD35000885340008A8
:1026000070477047FEE7000010B5012209490A48EB
:10261000FFF72FFF07490122491E0848FFF729FF4E
:10262000044C241F02E006A001F05EF9A068002817
:10263000F9D010BD500000209C020020680300204B
:102640006B32313020636F6E6E656374696F6E201C
:102650006661696C7572650D0A00000010B50F485F
:1026600000F068F80D4C2078032813D10B4800F0D7
:1026700061F860780028F9D00948D0F8A41251B167
:102680005FF00001C0F8A41204480838817881F096
:102690000101817010BD0121F4E7000064000020F9
:1026A0000080424270B50F4800F044F80D4C20788D
:1026B000042816D10B4800F03DF860780028F9D0C6
:1026C000094D0124C5F8A4420020C5F8A0024FF42A
:1026D0007A7005F52875FEF7BDFA2C6001480838B8
:1026E000047070BD640000200080424210B50F48A5
:1026F00000F020F80D4C2078052813D10B4800F08D
:1027000019F860780028F9D00948D0F8A81251B11A
:102710005FF00001C0F8A81204480838417881F041
:102720000101417010BD0121F4E7000064000020A8
:102730000080424210B5044600F01CF8E070A17819
:102740000B4B30EA010280EA0101227021EA00010C
:102750006170A070054801D002685A60002903D05A
:1027600000685968401A606010BD00000800002031
:102770005C00002070B5254D002404212846FEF79A
:1027800073FB40B90A20FEF765FA04212846FEF7DC
:102790006BFB00B9012408212846FEF765FB40B910
:1027A0000A20FEF757FA08212846FEF75DFB00B91C
:1027B000022410212846FEF757FB40B90A20FEF7F5
:1027C00049FA10212846FEF74FFB00B903242021C7
:1027D0002846FEF749FB40B90A20FEF73BFA2021C4
:1027E0002846FEF741FB00B9042440212846FEF7A5
:1027F0003BFB40B90A20FEF72DFA40212846FEF7A0
:1028000033FB00B90524204670BD000000100240D3
:102810001D4808B5016841F480010160016801F4B8
:1028200080010091016841F40011016000680022FC
:1028300000F40010009011460C20FEF78DFB0C20D8
:10284000FEF77CFB002211460D20FEF785FB0D20D4
:10285000FEF774FB002211460E20FEF77DFB0E20D2
:10286000FEF76CFB002211460F20FEF775FB0F20D0
:10287000FEF764FB002211464620FEF76DFBBDE823
:1028800008404620FEF75ABB30380240F0B587B00A
:1028900014216846FDF7E0FC38480024016841F047
:1028A00010010160016801F010010591016841F01B
:1028B00020010160016801F020010591016841F0EB
:1028C00080010160016801F080010591016841F01B
:1028D00001010160016801F001010591016841F009
:1028E00040010160016801F040010591016841F07B
:1028F00002010160016801F002010591016841F0E7
:1029000008010160016801F008010591016841F0CA
:102910000401016000681A4E00F0040005900022D6
:102920004FF4A0613046FEF7A4FA0122510230466E
:10293000FEF79FFA134F0022FF213846FEF799FA5F
:102940007C2001258DE8310069460F48FEF794F997
:102950004FF4E0600090CDE901546946304603949D
:10296000FEF78AF9FF200090CDE901546946384608
:102970000394FEF781F907B0F0BD00003038024043
:1029800000140240001802400010024010B596B03A
:1029900000240F9410941194129413941C216846EF
:1029A0001494FDF759FC202107A8FDF755FC344885
:1029B000324901605321C0E9011441F28731C0E975
:1029C000031444618461FEF721FE08B1FDF74FFD59
:1029D0004FF480500F900FA92948FEF7AFFE08B1C1
:1029E000FDF745FD2648FFF790F908B1FDF73FFDDB
:1029F000139413A922481494FEF7C0FD08B1FDF703
:102A000036FD6020CDE900040294039404940594FB
:102A1000002269461A480694FFF711F908B1FDF73C
:102A200026FD042269461648FFF709F908B1FDF7AB
:102A30001EFD082269461248FFF701F908B1FDF7AB
:102A400016FD0C2269460E48FFF7F9F808B1FDF7AC
:102A50000EFD0794089409944FF400500A94CDE9B0
:102A60000B4007A906480E94FEF75EFD08B1FDF77E
:102A7000FEFC0348FFF7B8F816B010BD0000014097
:102A8000A800002010B58CB024216846FDF7E4FBB7
:102A90000024154809944FF080410A94C0E90014BD
:102AA0004FF6FF71C0E90241046184610320CDE962
:102AB00000040120CDE902040494CDE90540079407
:102AC000694609480894FEF7A7FE08B1FDF7CFFC58
:102AD000099409A904480A94FEF750FD002801D082
:102AE000FDF7C5FC0CB010BDF000002010B58CB097
:102AF00024216846FDF7B0FB0024164809941449C8
:102B00000A94C0E900144FF6FF71C0E90241046164
:102B100084610320CDE900040120CDE9020404947E
:102B2000CDE90540079469460A480894FEF774FE0B
:102B300008B1FDF79CFC099409A906480A94FEF720
:102B40001DFD002801D0FDF792FC0CB010BD000067
:102B5000000400403801002010B58CB024216846E4
:102B6000FDF77AFB00241648099414490A94C0E939
:102B700000144FF6FF71C0E9024104618461032033
:102B8000CDE900040120CDE902040494CDE905401B
:102B9000079469460A480894FEF73EFE08B1FDF71F
:102BA00066FC099409A906480A94FEF7E7FC002888
:102BB00001D0FDF75CFC0CB010BD00000008004027
:102BC0008001002010B58CB024216846FDF744FB3D
:102BD00000241548099413490A94C0E90014611EA1
:102BE000C0E90241046184610320CDE900040120B1
:102BF000CDE902040494CDE90540079469460A48EA
:102C00000894FEF709FE08B1FDF731FC099409A903
:102C100005480A94FEF7B2FC002801D0FDF727FC16
:102C20000CB010BD000C0040C80100201FB50021F1
:102C300010480091019102910D4A039102605322C4
:102C4000C0E9012141F28732C0E903218161FEF729
:102C5000DDFC08B1FDF70BFC4FF480500090694695
:102C60000448FEF76BFD002801D0FDF700FC1FBDF6
:102C700000400140100200200C4810B50A490160D4
:102C80004FF4E1314160002181600C22C160C0E954
:102C900004128161C161FFF711FA002803D0BDE879
:102CA0001040FDF7E4BB10BD004C0040580200206E
:102CB0000C4810B50A4901604FF4E1314160002130
:102CC00081600C22C160C0E904128161C161FFF71B
:102CD000F5F9002803D0BDE81040FDF7C8BB10BDD2
:102CE000005000409C0200200C4810B50A490160C9
:102CF0004FF4E1314160002181600C22C160C0E9E4
:102D000004128161C161FFF7D9F9002803D0BDE841
:102D10001040FDF7ACBB10BD00100140E0020020E8
:102D20000C4810B50A4901604FF4E13141600021BF
:102D300081600C22C160C0E904128161C161FFF7AA
:102D4000BDF9002803D0BDE81040FDF790BB10BDD1
:102D500000480040240300200C4810B50A490160D7
:102D60004FF4E1314160002181600C22C160C0E973
:102D700004128161C161FFF7A1F9002803D0BDE809
:102D80001040FDF774BB10BD001401406803002023
:102D9000FEE7000010B500211648FEF7E5FF04210C
:102DA0001448FEF7E1FF08211248FEF7DDFF0C2171
:102DB0001048FEF7D9FF3C210F48FEF719FE3C21D1
:102DC0000E48FEF715FE3C210D48FEF711FE3C2192
:102DD0000C48FEF70DFE084947F6FF700968486287
:102DE0000649096848620649096848620549096850
:102DF000486210BDA8000020F0000020380100202B
:102E000080010020C8010020FEE70000F5EEC01A96
:102E100080EC030AF1EE10FA01DCF1EE611A9FED8D
:102E20000A0A80ED090A80ED080A80ED060A80EDA5
:102E3000070A80ED050A80ED040A80ED030A2830B8
:102E4000C0EC031A70470000000000004E490A88D9
:102E5000521C92B20A80642A01D100220A8090EDAD
:102E6000073AD0ED080A73EE601AC0ED031AD0EDF0
:102E7000060A30EEA11A80ED061AD0ED0A0AF5EE28
:102E8000C00AF1EE10FA24D0B5EEC01AF1EE10FA35
:102E900002DDF0EE412A01E0F1EE412AF5EEC00A32
:102EA000F1EE10FA02DDB0EE602A01E0B1EE602A28
:102EB000F4EEC22AF1EE10FA02D2F0EE410A06E078
:102EC000B5EEC01AF1EE10FA01DCF1EE600AC0EDC9
:102ED000060AD0ED000A90ED011A90ED062A60EE88
:102EE000A10A41EE020A90ED041A90ED022A31EE99
:102EF000C11A42EE010AC0ED090A90ED0B1AF4EE78
:102F0000C10AF1EE10FA02DDF0EE602A01E0F0EE07
:102F1000412A90ED0C2AF4EEC22AF1EE10FA07D203
:102F2000F4EEC10AF1EE10FA04DCF0EE410A01E021
:102F3000F0EE420AF5EEC01AC0ED090AF1EE10FA01
:102F400002DDF0EE610A01E0F1EE610AB5EEC00AC1
:102F5000F1EE10FA01DCB1EE400AF4EEC00AF1EE37
:102F600010FA0DD2B5EEC03AF1EE10FA08D1098888
:102F7000052905D89FED050A80ED060A80ED090AAE
:102F8000C0ED041A70470000280000200000000077
:102F9000704770472DE9F0413F4D9FED3E0A3F4E8F
:102FA00085ED070A3178D1B13D4800BF90ED000AA8
:102FB0003C4A3E4CB8EEC00A85ED080A10789FEDF9
:102FC0003A0A00B32078401CC3B22370002010706E
:102FD000374A17788F4315D0022B02D013E03548BB
:102FE000E4E740F2B631F0EE080AE161C5ED000A0F
:102FF00085ED010AF2EE000AC5ED020A107001200B
:10300000307000E0E0612448FFF720FF94ED070AEC
:10301000D5ED090A204DB8EEC01AB8EEC00A234B10
:10302000683D30EE811A30EE600A18331A1F85EDC4
:10303000071A111F85ED140A081FFDF7DFFA94ED3A
:10304000050A2846B8EEC00A85ED080A94ED060A7E
:10305000B8EEC00A85ED150AB0EE000AFFF7F6FEDD
:10306000B0EE000A05F13400FFF7F0FE95ED090A15
:103070000320BDEEC00A10EE101A00F0F5FC95ED2D
:10308000160ABDE8F041BDEEC00A042010EE101A89
:1030900000F0EABC0000F042580600205D0000206D
:1030A000540000204C000020000000002C000020F4
:1030B0005E00002058000020FDF7E6BE30B593B05A
:1030C00030216846FDF7C8F814210CA8FDF7C4F8B4
:1030D0001C480025016841F080510160006800F043
:1030E000805011901848016841F4804101600068E7
:1030F000022400F48040119001200090000401900F
:103100008001CDE9064008AA0420542182E813007A
:103110000B906846FEF73CF808B172B6FEE70CA9C2
:103120000F2081E831004FF48050CDE90F050221D6
:103130000CA8FDF743FF002801D072B6FEE713B0DC
:1031400030BD000040380240007000400248016875
:1031500041F470010160704788ED00E010B504484B
:10316000FEF78EFCBDE810400248FEF789BC000067
:10317000A800002010020020F0B50268254C264D62
:10318000264E274F274B4FF0804CA04209D0604578
:1031900007D0A84205D0B04203D0B84201D098422F
:1031A00004D122F0700E4A6842EA0E02A0421BD0FF
:1031B000604519D0A84217D0B04215D0B84213D0FC
:1031C000984211D0184DA8420ED0184DA8420BD0ED
:1031D000174DA84208D0174DA84205D0164DA84259
:1031E00002D0164DA84203D122F44075CA682A4382
:1031F0004D6922F080022A4302608A68C2620A682E
:103200008262A04201D0984201D109690163012183
:103210004161F0BD00000140000400400008004092
:10322000000C004000040140004001400044014007
:103230000048014000180040001C004000200040F1
:1032400010B501F01F030121046A99408C43046208
:10325000016A9A401143016210BD10B5846842EAC8
:10326000032224F47F440A432243826010BD826813
:1032700022F070020A4342F00701816070470000AB
:10328000F0B5026A22F001020262036A42688469B0
:10329000124E24F073050C682C4323F002058B6852
:1032A0002B430D4DA84201D0B04205D123F00807B1
:1032B000CB683B4323F00403A84201D0B04205D1C0
:1032C0004D6922F4407215438A692A434260846141
:1032D000496841630362F0BD000001400004014001
:1032E000F0B5026A22F010020262026A4368846941
:1032F0000D6824F4E64444EA05248D6822F0200297
:1033000042EA05120F4D104EA84201D0B04206D13C
:10331000CF6822F0800242EA071222F04002A8425F
:1033200001D0B04207D14D6923F4406343EA8503DD
:103330008D6943EA85034360846149688163026261
:10334000F0BD00000000014000040140F0B5026A39
:1033500022F480720262026A4368C46922F4007235
:1033600024F073050C68124E2C438D6842EA052246
:103370000E4DA84201D0B04206D1CF6822F40062BF
:1033800042EA072222F48062A84201D0B04207D16B
:103390004D6923F4405343EA05138D6943EA05134D
:1033A0004360C4614968C1630262F0BD000001402E
:1033B0000004014030B5026A22F480520262046ABD
:1033C0004268C3690D6823F4E64343EA05238D6828
:1033D00024F4005444EA0534084DA84202D0084DB4
:1033E000A84204D14D6922F4804242EA851242602B
:1033F000C36149680164046230BD000000000140FF
:103400000004014010B5036A046A24F00104046258
:10341000846924F0F00444EA021423F00A020A4307
:103420008461026210BD10B5036A23F010030362C9
:103430008369046A23F4704343EA023224F0A00350
:1034400043EA01118261016210BD000010B5044819
:10345000FEF700FDBDE8104002490148FDF7F2B853
:1034600058020020850000200148FEF7F3BC000050
:103470009C02002010B5806B0021C185C184FEF73D
:10348000E7FC10BD70B5846B2068406994F83D106E
:10349000C0F3C0100025212904D118B1E5842046CD
:1034A00000F0B0F82068406994F83E10C0F3801036
:1034B000222904D118B1E585204600F07CF8206C63
:1034C00040F0100020642046FEF7C2FC70BD10B52D
:1034D0000146806B09680968C9052FD40021C185A0
:1034E00001680C3151E8002F22F4807241E800237A
:1034F000002BF5D10168143151E8002F22F00102B0
:1035000041E80023002BF5D10168143151E8002F68
:1035100022F0400241E80023002BF5D1202180F861
:103520003E10016B012909D101680C3151E8002FCF
:1035300022F0100241E80023002BF5D1016B012994
:1035400002D0FEF7ABFF10BD818DFEF780FC10BDF1
:1035500010B5806B016B012902D0FFF709F810BD8F
:10356000818D4908FEF773FC10BD10B50146806BD4
:1035700009680968C90516D40021C184016814319D
:1035800051E8002F22F0800241E80023002BF5D102
:1035900001680C3151E8002F42F0400241E800235D
:1035A000002BF5D110BDFFF72BF810BD10B5806BC7
:1035B000FFF727F810BD01680C3151E8002F22F405
:1035C000907241E80023002BF5D10168143151E8D5
:1035D000002F22F0010241E80023002BF5D1016BFE
:1035E000012909D101680C3151E8002F22F01002A5
:1035F00041E80023002BF5D1202180F83E10002166
:103600000163704701680C3151E8002F22F0C002BD
:1036100041E80023002BF5D1202180F83D107047B0
:1036200008B590F83E10222901D0022008BD82681A
:103630004FF480539A4201D1016921B1816A9A42C3
:103640001BD04AB10AE00268816A5268C2F30802DC
:103650000A80816A891C08E0026972B102685268B6
:1036600002F07F020A70816A491C8162C18D491E85
:103670000904090CC18503D019E002685268F1E71A
:103680000168CA6822F02002CA600168CA6822F490
:103690008072CA6001684A6922F001024A612021F1
:1036A00080F83E10016B012903D0FEF7F7FE0020E1
:1036B00008BD0021016301680C3151E8002F22F0A0
:1036C000100241E80023002BF5D101680A68D206F8
:1036D00002D50A6849680091818DFEF7B8FBE6E7DC
:1036E00070B5044600680169E26821F44051114355
:1036F00001612169A068E2690843616911430843D7
:103700002168CA6849F20C639A430243CA60206880
:103710004169A26921F44071114341613149206836
:10372000884202D03049884202D1FDF7F1FC01E025
:10373000FDF7DEFCE2690023192164253226B2F58B
:10374000004F626828D0A0FB0101930F9200FCF7A4
:1037500039FD0146B0FBF5F06FF01802504301EB64
:10376000800006EB0010B0FBF5F000F0F002B1FBBA
:10377000F5F002EB0012B1FBF5F06FF018035843BF
:1037800001EB800006EB0010B0FBF5F000F00F003D
:1037900021681044886070BDA0FB010192185B4154
:1037A000FCF710FD0146B0FBF5F00201B1FBF5F0AE
:1037B0006FF01803584301EB800006EBC000B0FB2C
:1037C000F5F000F0F80002EB4002B1FBF5F05843D1
:1037D00001EB800006EBC000B0FBF5F000F0070045
:1037E000D6E70000001001400014014038B58162A6
:1037F00082850025134604460564222084F83E0095
:10380000A26B1C48D063A26B1B481064A26B1B48C0
:10381000D064A06B0A4605652168A06B091DFDF701
:10382000E1F9206801684068009084F83C50206904
:1038300048B120680C3050E8001F41F4807140E826
:103840000012002AF5D12068143050E8001F41F022
:10385000010140E80012002AF5D12068143050E838
:10386000001F41F0400140E80012002AF5D100207D
:1038700038BD0000CF3400085135000885340008F9
:1038800081628285C28500210164222280F83E2067
:1038900080F83C10016921B10168CA6842F4807265
:1038A000CA6001684A6942F001024A610068C16861
:1038B00041F02001C16000207047000010B50448AD
:1038C000FEF7C8FABDE8104002490148FCF7D2BD36
:1038D00024030020700000200148FEF7BBBA00005E
:1038E00068030020FEE70000014A024900F023B807
:1038F000593900086C0000200907090E002804DB74
:1039000000F1E02080F80014704700F00F0000F193
:10391000E02080F8141D704702E008C8121F08C19B
:10392000002AFAD170477047002001E001C1121F40
:10393000002AFBD170472DE9F04116460F46044698
:10394000002503E03946B047641C6D1C2078002830
:10395000F8D12846BDE8F08103490A685206FCD533
:10396000C2B24A607047000000100140FDF794FAAF
:10397000FFF7A4FBFEF78AFFFEF74AFFFFF7B4F953
:10398000FFF77AF9FFF702F8FFF77CF8FFF7AEF8D8
:10399000FFF7E2F8FFF716F9FFF748F9FFF7C0F96C
:1039A000FFF7DAF9FFF784F9254D00242C70FCF7B6
:1039B000DBFCFEF729FE23490120C1F8A002FFF736
:1039C000E9F900BFFEF76EFEFEF790FEFEF746FE39
:1039D00028780028F6D0FCF77BFC1B4A1B491C48C2
:1039E00013789FED1C0AF7EE000ADBB140F22623A4
:1039F0009FED191A0B6080ED001A80ED010AC0EDF1
:103A0000020A164B1B784BB19FED150A80ED000A98
:103A1000C0ED020A14704FF4347008601148FDF7CD
:103A20004DFEFEE740F24C43B0EE081A0B6080ED0D
:103A3000001A80ED010AB1EE0E0A80ED020AE0E7FD
:103A40005C000020008042425D0000204800002011
:103A500058060020000000003333B33F5E00002012
:103A6000CDCC0C40100200202DE9F0474FF400347B
:103A7000344A650067016610334B4FF400184FF469
:103A800000294FF4801C4FF4000A002916DD01289C
:103A90000DD002280ED0032802D0042841D102E024
:103AA000012515603CE008241460156039E0102001
:103AB000106030E080241460176032E01BDA0128C7
:103AC0000ED0022811D0032802D0042811D103E01F
:103AD0000224146016600CE0042414604C4607E0D5
:103AE00020241460C2F800C003E04024146054464F
:103AF0001460494215E001280BD002280ED003289B
:103B000002D004280DD101E0166009E015604C4692
:103B100006E0C2F800C0C2F800800DE0176054460D
:103B20001460012808D0022808D0032808D00428EF
:103B300000D11964BDE8F0875963FBE79963F9E7A1
:103B4000D963F7E71818024000000140000610167C
:103B5000000610160000000000000000010203042F
:103B60000607080900000000010203048C3B00085E
:103B7000000000207000000018390008FC3B00081D
:103B800070000020280A0000283900080100000009
:103B900010000000000000000024F40000000000FD
:103BA0000000000000000000000000000000000015
:103BB0000000000000000000000000000000000005
:103BC0000000807F000000000000000000000000F6
:103BD00000000000000000000000000000000000E5
:103BE00000000000000000000000000000000000D5
:0C3BF000000000000000000000000000C9
:040000050800018965
:00000001FF
